:100000000C94DA010C94E42D0C94112E0C94971E90
:100010000C94C41E0C94F11E0C94F2280C94020251
:100020000C9402020C9451290C9402020C940202CA
:100030000C9402020C9402020C9402020C94020230
:100040000C943E2E0C9402020C9470310C94BE3130
:100050000C9402020C9402020C9402020C94020210
:100060000C948B1C0C940202005EBCE2613FDD83A9
:10007000C29C7E20A3FD1F419DC3217FFCA2401E88
:100080005F01E3BD3E6082DC237D9FC1421CFEA078
:10009000E1BF5D0380DE3C62BEE0025CDF81633D68
:1000A0007C22C09E1D43A1FF4618FAA427799BC558
:1000B00084DA3866E5BB5907DB856739BAE4065848
:1000C0001947A5FB7826C49A653BD987045AB8E638
:1000D000A7F91B45C6987A24F8A6441A99C7257B28
:1000E0003A6486D85B05E7B98CD2306EEDB3510F18
:1000F0004E10F2AC2F7193CD114FADF3702ECC9208
:10010000D38D6F31B2EC0E50AFF1134DCE90722CF7
:100110006D33D18F0C52B0EE326C8ED0530DEFB1E7
:10012000F0AE4C1291CF2D73CA947628ABF51749D7
:100130000856B4EA6937D58B5709EBB536688AD4C7
:1001400095CB2977F4AA4816E9B7550B88D6346AB7
:100150002B7597C94A14F6A8742AC896154BA9F7A7
:10016000B6E80A54D7896B35303B303B25643B30C9
:100170003B25643B0072643D636C6561720A0069F3
:10018000643D25640A0066756C6C0A006E65772014
:10019000706172656E743D25642C20643D25640A8F
:1001A0000076657273696F6E206D69736D6174633B
:1001B000680A00726561643A2025642D25642D2546
:1001C0006420733D25642C633D25642C743D2564B7
:1001D0002C70743D25642C6C3D25643A25730A000F
:1001E00073656E643A2025642D25642D25642D25C4
:1001F0006420733D25642C633D25642C743D256487
:100200002C70743D25642C6C3D25642C73743D2545
:10021000733A25730A00726571206E6F64652069F8
:10022000640A00636865636B2077697265730A000E
:10023000257320737461727465642C2069642025B1
:10024000640A000001020304050A0B0C0D0E0F11D5
:10025000121314151600000000240027002A0000C5
:10026000000000250028002B0000000000230026CD
:10027000002900040404040404040402020202022B
:10028000020303030303030102040810204080015A
:1002900002040810200102040810200000000700DA
:1002A000020100000304060000000000000000003E
:1002B000407A10F35A00A0724E18090010A5D4E835
:1002C0000000E87648170000E40B54020000CA9AC8
:1002D0003B000000E1F5050000809698000000401A
:1002E000420F000000A0860100000010270000005F
:1002F00000E803000000006400000000000A0000A5
:100300000000000100000000002C76D888DC674F58
:100310000823DFC1DFAE59E1B1B796E5E3E453C688
:100320003AE651997696E8E6C28426EB898C9B6280
:10033000ED407C6FFCEFBC9C9F40F2BAA56FA5F42A
:1003400090055A2AF75C936B6CF9676DC11BFCE052
:10035000E40D47FEF520E6B500D0ED902E030094A5
:100360003577050080841E080000204E0A0000003A
:10037000C80C333333330F986E12831141EF8D2144
:1003800014893BE65516CFFEE6DB18D1844B381BAB
:10039000F77C1D901DA4BBE424203284725E228170
:1003A00000C9F124ECA1E53D27006408A011271B3A
:1003B0001E1F2A3311241FBECFEFD8E0DEBFCDBFF2
:1003C00013E0A0E0B1E0E0E8FFE602C005900D9286
:1003D000AA31B107D9F716E0AAE1B3E001C01D9236
:1003E000A738B107E1F713E0C4EBD3E004C02297CC
:1003F000FE010E948337CA3AD107C9F70E948033B1
:100400000C94BE370C940000EF92FF920F931F9351
:10041000F22FF02E47FD02C0E4E001C0E4E1242FFA
:10042000332727FD309537FF03C0309521953F4F87
:100430004F2D512F0F2FEE2E0E947A058F2D912FC9
:100440001F910F91FF90EF900895FC018827992745
:10045000E89421912032E9F3293010F02E30C8F3CE
:100460002B3241F02D3239F4689404C00E94FF020F
:10047000820F911D219120532A30C0F31EF49095D4
:1004800081959F4F08951F93FC0199278827BC01F0
:10049000E89411911032E9F3193010F01E30C8F3CE
:1004A0001B3251F01D3249F4689406C00E94EA02E2
:1004B000610F711D811D911D119110531A30B0F300
:1004C0003EF490958095709561957F4F8F4F9F4F2B
:1004D0001F910895FB01DC014150504048F001900C
:1004E0000D920020C9F701C01D9241505040E0F725
:1004F0000895A0E0B0E0EFE7F2E00C9491377C01C2
:10050000EB018A01690109C0CE012196F601099526
:10051000F70181937F010150104001151105A1F7EA
:10052000CDB7DEB7E8E00C94AD37FB019F01E8944E
:100530004230C4F04532B4F44A3029F497FB1EF43B
:10054000909581959F4F642F77270E946D37805D2E
:100550008A330CF0895D8193CB010097A1F716F4E3
:100560005DE251931082C9010C94CA07FA01CF933E
:10057000FF93EF93223044F1253234F5C22FE894F3
:10058000CA3049F497FB3EF490958095709561953B
:100590007F4F8F4F9F4F2C2F332744275527FF9393
:1005A000EF930E944B37EF91FF91605D6A330CF03F
:1005B000695D6193B901CA0160507040804090400C
:1005C00051F716F4CDE2C19310828F919F91CF9194
:1005D0000C94CA07592F482F372F262F660F771FE5
:1005E000881F991F660F771F881F991F620F731F3F
:1005F000841F951F660F771F881F991F08957AE043
:10060000979F902D879F802D910D11240895FA01B9
:10061000CF93FF93EF932230CCF02532BCF4C22F5E
:100620002C2F332744275527FF93EF930E944B37F6
:10063000EF91FF91605D6A330CF0695D6193B901E0
:10064000CA01605070408040904051F710828F91F5
:100650009F91CF910C94CA07FB019F01423074F027
:10066000453264F4642F77270E946D37805D8A33AA
:100670000CF0895D8193CB010097A1F71082C9012D
:100680000C94CA07AEE0B0E0E8E4F3E00C949537D0
:100690000D891E898F89988D97FF02C080E090E8B0
:1006A00001979E838D831A8309838EE08C839E013C
:1006B000255E3F4FCE010196698D7A8DA9010E947A
:1006C0009D034D815E8157FD0AC02F8138854217F9
:1006D00053070CF49A01020F131FF80110822E9693
:1006E000E4E00C94B137AEE0B0E0E9E7F3E00C945D
:1006F00095378C0177FF02C060E070E86150704070
:100700007E836D831A8309838EE08C83CE010196EC
:10071000BA01A9010E949D032D813E8137FD09C0C8
:10072000EF81F8852E173F070CF4F901E00FF11F58
:1007300010822E96E4E00C94B137ABE0B0E0E3EA2F
:10074000F3E00C9487373C012B015A01FC0117821E
:100750001682838181FD03C06FEF7FEFC6C19AE0EF
:10076000892E1E010894211C311CF3012381F20102
:1007700023FD859123FF81912F01882309F4B2C1C4
:10078000853239F423FD859123FF81912F01853234
:1007900029F490E0B3010E94DA07E7CF982FFF24F5
:1007A000EE249924FFE1FF15D0F09B3269F09C32D2
:1007B00028F4903259F0933291F40EC09D3249F0F2
:1007C000903369F441E024C052E0F52A84E0F82A2D
:1007D00028C098E0F92A25C0E0E1FE2A22C0F7FCF3
:1007E00029C0892F80538A3070F4F6FE05C0989C8A
:1007F000902C1124980E15C0E89CE02C1124E80ED2
:10080000F0E2FF2A0EC09E3229F4F6FC6BC140E4F0
:10081000F42A07C09C3619F450E8F52A02C098362D
:1008200049F4F20123FD959123FF91912F01992322
:1008300009F0B8CF892F8554833018F08052833067
:1008400038F444E050E0A40EB51E5FE359830FC0B6
:10085000933631F0933779F0933509F056C020C0C4
:10086000F5018081898342E050E0A40EB51E61014C
:1008700001E010E012C0F501C080D180F6FC03C099
:100880006FEF7FEF02C0692D70E042E050E0A40EF0
:10089000B51EC6010E94BF078C015FE7F52214C098
:1008A000F501C080D180F6FC03C06FEF7FEF02C07E
:1008B000692D70E042E050E0A40EB51EC6010E9412
:1008C000B4078C0150E8F52AF3FE07C01AC080E295
:1008D00090E0B3010E94DA07EA948E2D90E00817A9
:1008E0001907A8F30EC0F601F7FC8591F7FE819178
:1008F0006F0190E0B3010E94DA07E110EA94015021
:1009000010400115110579F7EAC0943611F09936B7
:1009100069F5F7FE08C0F5012081318142815381DC
:1009200084E090E00AC0F501808191819C01442718
:1009300037FD4095542F82E090E0A80EB91E9FE647
:10094000F92257FF09C050954095309521953F4FAA
:100950004F4F5F4FE0E8FE2ACA01B901A1012AE02A
:1009600030E00E940608D82ED21840C0953729F4EE
:100970001F2D1F7E2AE030E01DC01F2D197F9F36DE
:1009800061F0903720F4983509F0ACC00FC0903773
:1009900039F0983709F0A6C004C028E030E00AC05A
:1009A000106114FD146020E130E004C014FD1660F5
:1009B00020E132E017FF08C0F5016081718182817A
:1009C000938144E050E008C0F50180819181BC0131
:1009D00080E090E042E050E0A40EB51EA1010E942C
:1009E0000608D82ED2188FE7F82EF122F6FE0BC09B
:1009F0005EEFF522D91438F4F4FE07C0F2FC05C00E
:100A00008FEEF82202C01D2D01C0192DF4FE0DC07D
:100A1000FE01ED0DF11D8081803319F499EEF9226C
:100A200008C01F5FF2FE05C003C08F2D867809F055
:100A30001F5F0F2DF3FC14C0F0FE0FC01E1510F049
:100A40009D2C0BC09D2C9E0C911A1E2D06C080E281
:100A500090E0B3010E94DA071F5F1E15C0F304C0C7
:100A60001E1510F4E11A01C0EE2404FF0FC080E34C
:100A700090E0B3010E94DA0702FF1DC001FD03C030
:100A800088E790E00EC088E590E00BC0802F867864
:100A900091F001FF02C08BE201C080E2F7FC8DE221
:100AA00090E0B3010E94DA0706C080E390E0B30152
:100AB0000E94DA079A94D914C0F3DA94F101ED0D8B
:100AC000F11D808190E0B3010E94DA07DD20A9F7D3
:100AD00006C080E290E0B3010E94DA07EA94EE20BB
:100AE000C1F743CEF30166817781CB012B96E2E11A
:100AF0000C94A337A9E0B0E0E0E8F5E00C948B3764
:100B00006A01122FA02EBE2C2BE3201718F42CE321
:100B1000922E02C0902E9394AE014F5F5F4F27E05C
:100B2000092D0E94DC06BC018981E82EFF24C70143
:100B300089709070019711F4ADE209C0B1FE02C056
:100B4000ABE205C0B0FC02C0A0E001C0A0E2E3FE41
:100B50003BC0AA2311F423E001C024E0211710F0C8
:100B600020E002C0121B212FEB2CB4FE02C0322F5A
:100B70000AC0F601322F80E202C081933150332344
:100B8000E1F7C20ED11CAA2319F0F601A1936F015F
:100B9000F6013196E2FE05C09EE4D6019C9381E405
:100BA00004C09EE6D6019C9381E611968C939183B6
:100BB0003296DF01832F90E202C09D9381508823FB
:100BC000E1F7E30FF11D40C0E2FE42C0AA2311F499
:100BD00023E001C024E0211710F020E002C0121B26
:100BE000212FEB2CB4FE02C0922F0AC0F601922FE7
:100BF00080E202C0819391509923E1F7C20ED11C8B
:100C0000AA2319F0F601A1936F01F6013196E2FED5
:100C100008C089E4D6018C938EE411968C9386E407
:100C200007C089E6D6018C938EE611968C9386E6F2
:100C300081833296DF01892F20E202C02D938150FB
:100C40008823E1F7E90FF11D10822EEF3FEFAFC0CF
:100C5000161617061CF041E050E003C0AB014F5FD1
:100C60005F4FAA2019F480E090E003C08A2D90E045
:100C7000019620E030E0AA2311F021E030E0240FBB
:100C8000351F280F391F812F90E02817390714F0DE
:100C900020E002C0121B212F4B2D50E0CA018071B1
:100CA0009070B4FC0DC0B3FC0BC0F601322F40E2D3
:100CB00002C0419331503323E1F7C20ED11C01C071
:100CC000322FAA2319F0F601A1936F01892B11F09D
:100CD000132F0AC0F601132F80E302C08193115035
:100CE0001123E1F7C30ED11C092D060FBA8090E144
:100CF000892E912C8E209F20E4FE04C0F1E3BF16C4
:100D000009F40150101614F001E003C0093008F096
:100D100008E09B0177FF02C020E030E0CB010196A4
:100D2000821B930BFE013196E80FF91F8EE2F82E1D
:100D30003B01601A71088A2D90E044275527481B13
:100D4000590B8FEF2F3F380719F4D601FD926D0133
:100D5000621773072CF06216730614F4808101C0C9
:100D600080E32150304031962417350724F0D60116
:100D70008D936D01E6CF2617370749F4B5E3BB1510
:100D800028F0BB1621F48114910409F481E3F601E3
:100D90008193D601812F90E202C09C9381501196DD
:100DA0008823D9F7E10FF11D108220E030E0C9015E
:100DB0002996EEE00C94A737283008F027E0332777
:100DC000DA01990F311D87FD91600096610571056B
:100DD00039F432602E5F3D9330E32A95E1F70895B0
:100DE0009F3F30F080387105610509F03C5F3C5F42
:100DF0003D93913008F08068911DDF93CF931F934E
:100E00000F93FF92EF92192F987F9695E92F969561
:100E10009695E90FFF27E75FFC4F99273327EE24CC
:100E2000FF24A701E70105900894079428F4360FE2
:100E3000E71EF81E491F511D660F771F881F991F57
:100E40000694A1F70590079428F4E70EF81E491FB1
:100E5000561FC11D770F881F991F661F0694A1F7A3
:100E60000590079428F4F80E491F561FC71FD11D7F
:100E7000880F991F661F771F0694A1F705900794A6
:100E800020F4490F561FC71FD81F990F661F771FE1
:100E9000881F0694A9F784911095177041F0D69594
:100EA000C79557954795F794E7941A95C1F7EFEAD8
:100EB000F2E06894159015913591659195910590A2
:100EC0007FE27395E118F10A430B560BC90BD00969
:100ED000C0F7E10CF11E431F561FC91FD01D7EF441
:100EE000703311F48A95E6CFE894015030F0080F82
:100EF0000AF40027021708F4202F2395022F7A33D3
:100F000028F079E37D932A95E9F710C07D932A951F
:100F100089F6069497956795379517951794E11874
:100F2000F10A430B560BC90BD00998F023957E911B
:100F300073957A3308F070E37C932013B8F77E91B1
:100F400070617D9330F0839571E37D9370E32A9512
:100F5000E1F71124EF90FF900F911F91CF91DF9156
:100F6000992787FD90950895FC0105906150704088
:100F70000110D8F7809590958E0F9F1F0895FC0162
:100F80006150704001900110D8F7809590958E0FB8
:100F90009F1F0895DC01FC01672F71917723E1F712
:100FA000329704C07C916D9370836291AE17BF0736
:100FB000C8F308950F931F93CF93DF938C01EB0138
:100FC0008B8181FF1BC082FF0DC02E813F818C81F0
:100FD0009D812817390764F4E881F9810193F98329
:100FE000E88306C0E885F985802F0995892B31F4BF
:100FF0008E819F8101969F838E8302C00FEF1FEF2A
:10100000C801DF91CF911F910F910895FA01AA278E
:10101000283051F1203181F1E8946F936E7F6E5F3B
:101020007F4F8F4F9F4FAF4FB1E03ED0B4E03CD0E9
:10103000670F781F891F9A1FA11D680F791F8A1FCC
:10104000911DA11D6A0F711D811D911DA11D20D033
:1010500009F468943F912AE0269F11243019305DED
:101060003193DEF6CF010895462F4770405D4193DE
:10107000B3E00FD0C9F7F6CF462F4F70405D4A332B
:1010800018F0495D31FD4052419302D0A9F7EACFF3
:10109000B4E0A6959795879577956795BA95C9F722
:1010A00000976105710508959B01AC010A2E069415
:1010B0005795479537952795BA95C9F7620F731FCE
:1010C000841F951FA01D08950F931F9381E293E045
:1010D00061E20E94AE160FE213E0C80164E00E94D4
:1010E0008F138DE393E0B8010E94C51385E893E068
:1010F00069E04AE00E94E2288CEF93E061E040E082
:101100000E946D1F8DE194E062E040E00E946D1F3F
:101110008EE394E063E040E00E946D1F8FE594E071
:1011200064E040E00E946D1F80E894E065E040E0EC
:101130000E946D1F81EA94E066E042E00E946D1F0C
:101140001F910F91089580E10E94322FAA2797FDE9
:10115000A095BA2FBC01CD010E94F63520E030E009
:1011600040E85AE30E94AA3620E030E040EA50E42A
:101170000E94AA3608952F923F924F925F926F92EB
:101180007F928F929F92AF92BF92CF92DF92EF9217
:10119000FF920F931F930E94A3083B014C012090E4
:1011A000AA023090AB024090AC025090AD02E090A9
:1011B000A602F090A7020091A8021091A902C8010E
:1011C000B7012091A2023091A3024091A402509154
:1011D000A5020E94F2345B016C0120E030E040E0A7
:1011E00050E00E94A636181624F0D7FAD094D7F80B
:1011F000D094C801B701A40193010E94F2347B018D
:101200008C01C201B10120E030E048EC51E40E94C1
:10121000F2342CEB34E743E15CE30E94AA3620E091
:1012200030E040E850E40E94F3349B01AC0160E000
:1012300070E080EE90E40E94F2349B01AC01C601A4
:10124000B5010E945B359B01AC01C801B7010E944A
:101250005B3520E030E040EE50E40E94F3341F9113
:101260000F91FF90EF90DF90CF90BF90AF909F9045
:101270008F907F906F905F904F903F902F90089548
:101280001F93CF93DF93EC010E94721F882331F0EC
:1012900081E696E060E071E00E94DF348D8182306B
:1012A000F9F4CE010E943A20182F81E696E06CE115
:1012B00071E00E94DC3481E696E06E814AE050E005
:1012C0000E946B3481E696E068E371E00E94DC34B2
:1012D00081E696E0612F70E04AE050E00E94BD3464
:1012E000DF91CF911F9108956F927F928F929F927D
:1012F000AF92BF92CF92DF92EF92FF920F931F9324
:101300007B018C0139014A018CEF93E0B801A70100
:1013100021E00E94E21FBC0105E813E0C80140E0A3
:101320000E941B278DE194E0B401A30121E00E94FB
:10133000E21FBC01C80140E00E941B2740917B03D3
:1013400050917C0360917D0370917E038EE394E065
:1013500021E00E94E21FBC01C80140E00E941B275F
:10136000C6016CE370E00E9438378FE594E00E947C
:10137000F11FBC01C80140E00E941B27C5016CE3BE
:1013800070E00E94383780E894E00E94F11FBC01B1
:10139000C80140E00E941B270E94862E60938103B3
:1013A0007093820380938303909384031F910F9122
:1013B000FF90EF90DF90CF90BF90AF909F908F9075
:1013C0007F906F9008950E944C1181E080935403A8
:1013D00008950F931F9381E696E067E471E00E9401
:1013E000DF340E94D51A80931C030E94CD1A80938B
:1013F0001B030E94C51A0AE113E0F80180830E94D2
:10140000BD1A80931E030E94B51A80931F030E9489
:10141000B01A825B80932003C8010E9458101F916C
:101420000F9108950F931F9301E213E0C80161E04B
:1014300040E00E940B17C8016FE571E00E94BF16E3
:10144000C80161E040E00E940B17E0917F03F0913A
:101450008003EE0FFF1FE255FD4F60817181C801CF
:101460000E94BF161F910F910895CF92DF92EF92C5
:10147000FF920F931F936091690370916A038091AB
:101480006B0390916C032CE330E040E050E00E944D
:101490004B3769017A0101E213E0C80162E04AE0DA
:1014A0000E940B17C8016FE571E00E94BF16C801CA
:1014B00062E04AE00E940B17C8016AE671E00E94F0
:1014C000BF16C801B6010E94E1161F910F91FF904F
:1014D000EF90DF90CF900895CF92DF92EF92FF923E
:1014E0000F931F9360915D0370915E0380915F0382
:1014F0009091600320E030E040E752E40E945B35C9
:101500000E94C3356B017C0101E213E0C80161E078
:101510004AE00E940B17C8016FE571E00E94BF16F8
:10152000C80161E04AE00E940B17C8016FE671E054
:101530000E94BF16C801B6010E94E1161F910F91CB
:10154000FF90EF90DF90CF900895CF92DF92EF92CF
:10155000FF920F931F93DF93CF9300D000D00F9291
:10156000CDB7DEB77B018C0191E2C92E93E0D92E75
:10157000C60163E04AE00E940B17C6016FE571E007
:101580000E94BF16C60163E04AE00E940B17C60125
:1015900064E771E00E94BF16C801B70144E021E092
:1015A0007E010894E11CF11C87010E940402C6011F
:1015B000B7010E94BF160F900F900F900F900F90E1
:1015C000CF91DF911F910F91FF90EF90DF90CF901F
:1015D0000895CF92DF92EF92FF920F931F93DF93C4
:1015E000CF9300D000D00F92CDB7DEB77B018C0136
:1015F00021E2C22E23E0D22EC60163E040E00E9429
:101600000B17C6016FE571E00E94BF16C60163E0CB
:1016100040E00E940B17C60169E771E00E94BF1607
:10162000C801B70144E021E07E010894E11CF11CEF
:1016300087010E940402C601B7010E94BF160F90E5
:101640000F900F900F900F90CF91DF911F910F91FE
:10165000FF90EF90DF90CF900895CF92DF92EF92BE
:10166000FF920F931F93DF93CF9300D000D00F9280
:10167000CDB7DEB77B018C0131E2C32E33E0D32E30
:10168000C60162E040E00E940B17C6016FE571E001
:101690000E94BF16C60162E040E00E940B17C6011F
:1016A0006FE771E00E94BF16C801B70144E021E076
:1016B0007E010894E11CF11C87010E940402C6010E
:1016C000B7010E94BF160F900F900F900F900F90D0
:1016D000CF91DF911F910F91FF90EF90DF90CF900E
:1016E00008950A9728F481E293E060E30E9483174B
:1016F00008950F931F93DF93CF93CDB7DEB727974E
:101700000FB6F894DEBF0FBECDBFCE0101960E948A
:10171000B61001E213E0C80160E040E00E940B1740
:10172000C80165E871E00E94BF16C80160E040E0B2
:101730000E940B178B8190E00E94710B6B81C80196
:1017400070E00E94E1168B818093590310925A0336
:10175000C8016AE30E9461178A8190E00E94710BC0
:101760006A81C80170E00E94E1168A8180935B0360
:1017700010925C03C8016AE30E946117898190E0BE
:101780000E94710B6981C80170E00E94E116C801D6
:1017900060E04AE00E940B178D8190E00E94710B7F
:1017A0006D81C80170E00E94E116C8016FE20E94DD
:1017B00061178E8190E00E94710B6E81C80170E00C
:1017C0000E94E1168E818093570310925803C8013E
:1017D0006FE20E9461176F8170E06E54784FC8010C
:1017E0000E94E11627960FB6F894DEBF0FBECDBF5C
:1017F000CF91DF911F910F91089580915103813016
:1018000001F50E94862E60939A0270939B0280934A
:101810009C0290939D0281EA94E060E070E00E9457
:10182000F11FBC0185E893E040E00E941B2787E0A0
:1018300060E00E94932F88E060E00E94932F109256
:101840005103089580915103882309F50E94862E43
:101850006093750370937603809377039093780376
:1018600081EA94E061E070E00E94F11FBC0185E82C
:1018700093E040E00E941B2787E061E00E94932FE5
:1018800088E061E00E94932F81E0809351030895E6
:1018900080915203813051F485E060E00E94932FE3
:1018A0001092520310926203109261030895809186
:1018B00061039091620301969093620380936103A8
:1018C0002091960230919702821793075CF08091E5
:1018D0005203882339F485E061E00E94932F81E070
:1018E00080935203089586E060E00E94932F08954C
:1018F00080915103813011F586E061E00E94932FC1
:1019000060916D0370916E0380916F0390917003ED
:101910000E94F4359B01AC0160915D0370915E0300
:1019200080915F03909160030E94F33460935D03A4
:1019300070935E0380935F039093600380915103E3
:10194000882321F486E060E00E94932F089580911F
:10195000790390917A038431910599F483E061E0F1
:101960000E94932F60E971E080E090E00E94942E45
:1019700083E060E00E94932F10927A031092790323
:101980000895019690937A0380937903089581E1F5
:101990000E94E72F019729F090E080915303813056
:1019A00009F491E0892F08954F925F926F927F9290
:1019B0008F929F92AF92BF92CF92DF92EF92FF925F
:1019C0000F931F93DF93CF9300D000D0CDB7DEB736
:1019D0000E94862E60937103709372038093730349
:1019E00090937403809155039091560301969093C0
:1019F00056038093550385E893E00E945722809117
:101A00005503909156034E9751F485E893E063EEA9
:101A100079E00E949026109256031092550380910F
:101A20001C0390E02091590330915A03281739077D
:101A300041F081E696E06AE971E00E94DF340E949D
:101A4000E90981E293E060E00E943F178DE393E0B3
:101A50000E9406158DE393E06AE872E00E94B615D5
:101A60002B013C018DE393E062E872E00E94B61521
:101A700069837A838B839C830E94862E20918103C5
:101A8000309182034091830350918403621B730B56
:101A9000840B950B61527E448040904038F181E682
:101AA00096E062EB71E00E94DF34E0907B03F090FF
:101AB0007C0300917D0310917E03C0906903D09058
:101AC0006A0360915D0370915E0380915F03909162
:101AD00060030E94C3354B015C0169817A818B816F
:101AE0009C81A301920154010E9474090E94790B08
:101AF00069817A818B819C810E942D0BC301B20187
:101B00000E94E90A80917F03909180030E94120A4B
:101B100060915D0370915E0380915F03909160031B
:101B20000E94C335DC01CB010E946C0A80916903DD
:101B300090916A030E94350A60917B0370917C0347
:101B400080917D0390917E030E94A50A0E94C70C9C
:101B5000882311F180919802909199020197C9F020
:101B600080915103813059F481E696E069EC71E08F
:101B70000E94DF340E94FD0B0E94480C04C08823A1
:101B800041F40E94220C81E090E0909399028093AE
:101B900098020E94A70C04C0109299021092980219
:101BA00080915703909158030497059708F0B9C1A5
:101BB00081E090E0909364038093630380E498E372
:101BC0009093500380934F038091590390915A034F
:101BD000079730F40E94220C1092800310927F032A
:101BE0008091590390915A03079729F580915B03DF
:101BF00090915C03892BF9F48091690390916A03B9
:101C0000A0916B03B0916C0380936503909366037E
:101C1000A0936703B09368031092690310926A035C
:101C200010926B0310926C0368E873E180E090E01F
:101C30000E94942E88C1CC24DD240E94BB087B0125
:101C40008C010E94A30860917B0370917C038091BA
:101C50007D0390917E03A80197010E94F334609365
:101C60007B0370937C0380937D0390937E030894A1
:101C7000C11CD11CE4EFCE16E1E0DE06F1F620E057
:101C800030E04AEF53E40E945B3560937B0370932E
:101C90007C0380937D0390937E0320919202309188
:101CA000930240919402509195020E94A636181614
:101CB00074F420915B0330915C03809180029091D9
:101CC0008102281739071CF40E94780C02C00E9478
:101CD000730CA0906903B0906A03C0906B03D0901E
:101CE0006C0380914F0390915003AA2797FDA09514
:101CF000BA2FA816B906CA06DB0688F080919802AA
:101D000090919902892B59F481E090E0909380039F
:101D100080937F030E94FD0B0E94480C14C18091A8
:101D2000590390915A03079708F002C180919802D5
:101D300090919902892B09F0FBC00E94220C10920D
:101D4000800310927F03B5C0809198029091990210
:101D5000892B19F5E0909E02F0909F020091A0025D
:101D60001091A1028091750390917603A091770361
:101D7000B0917803E80EF91E0A1F1B1F0E94862EE1
:101D8000E616F7060807190708F093C00E94480CEA
:101D90000E94FD0B82E090E088C060917E0270910D
:101DA0007F02882777FD8095982F0E94F6359B014A
:101DB000AC01C301B2010E94F3347B018C01698143
:101DC0007A818B819C81A80197010E94A636181602
:101DD000CCF5C301B20120E030E048EE51E40E94AE
:101DE000573588237CF58091630390916403892B98
:101DF00049F58091980290919902892B19F5E0900C
:101E00009E02F0909F020091A0021091A102809189
:101E10009A0290919B02A0919C02B0919D02E80EC3
:101E2000F91E0A1F1B1F0E94862EE616F7060807DA
:101E3000190708F03EC00E94220C0E94570C83E054
:101E400090E033C069817A818B819C81A8019701E0
:101E50000E9457351816ACF0809198029091990223
:101E6000892B79F4A114B104C104D10419F486E0DA
:101E700090E01BC00E94FD0B0E94480C85E090E0A2
:101E800014C08091980290919902019719F488E00A
:101E900090E00BC08091630390916403019719F463
:101EA00089E090E002C084E090E09093800380930A
:101EB0007F0380915103813009F045C00E94862E36
:101EC0002091710330917203409173035091740318
:101ED000621B730B840B950B28EE33E040E050E05F
:101EE0000E944B37C901DA0180936D0390936E0312
:101EF000A0936F03B09370032091690330916A033C
:101F000040916B0350916C03280F391F4A1F5B1FD0
:101F10002093690330936A0340936B0350936C03DF
:101F200012C0109264031092630380E890E748CED9
:101F3000C301B20120E030E048EE51E40E94A63631
:101F400087FF02CF2ACF0F900F900F900F90CF9165
:101F5000DF911F910F91FF90EF90DF90CF90BF9096
:101F6000AF909F908F907F906F905F904F9008956B
:101F70008F929F92AF92BF92CF92EF92FF920F9368
:101F80001F93A5E88A2EA3E09A2EC40160E479E0AD
:101F900045E020E00FEFF3E0EF2EF12CECE4CE2E45
:101FA00052E0A52EB12C0E94AD27C40162E672E07A
:101FB00042E752E020E00E94A82645E7E42E41E1F6
:101FC000F42EC7010E94991AC40161E046E020E0A6
:101FD0000E94F826C40162E046E020E00E94F82654
:101FE000C40163E046E020E00E94F826C40164E0FA
:101FF00046E020E00E94F826C40165E046E020E0CB
:102000000E94F826C40166E043E020E00E94F82622
:1020100001E213E0C80160E00E943F17C8010E947E
:10202000861786E061E00E94542F85E061E00E94FF
:10203000542F87E061E00E94542F88E061E00E9405
:10204000542F83E061E00E94542F81E162E00E94FE
:10205000542F0DE313E0C8010E943D16C8016AE841
:1020600072E04CE00E94EA15C80162E872E04CE0C0
:102070000E94EA15C7010E94991A1F910F91FF90C3
:10208000EF90CF90BF90AF909F908F900895482F82
:102090006AE00E942C37282F30E084E0220F331FA3
:1020A0008A95E1F7842F0E942C37892F820F08959B
:1020B0000F931F938C0184E295E068E670E00E9424
:1020C000ED1A84E295E060E00E946F1BF8018081C8
:1020D0000E944710682F84E295E00E946F1BF80170
:1020E00081810E944710682F84E295E00E946F1B57
:1020F000F80182810E944710682F84E295E00E94D7
:102100006F1BF80183810E944710682F84E295E0DD
:102110000E946F1BF80184810E944710682F84E29F
:1021200095E00E946F1BF80185810E944710682F7F
:1021300084E295E00E946F1BF80186818E510E9417
:102140004710682F84E295E00E946F1B84E295E0BF
:102150000E94B21B882321F01092C20480E003C0C9
:1021600081E08093C2041F910F9108950F931F93F4
:10217000CF93DF93EC0184E295E068E670E00E9483
:10218000ED1A84E295E060E00E946F1B84E295E026
:102190000E94B21B882319F01092C20411C081E082
:1021A0008093C20484E295E068E670E047E050E086
:1021B0000E94C31B84E295E00E94F71A079714F46B
:1021C00080E065C084E295E00E94001B082F8F77B5
:1021D00082958F701AE0819FC0011124202F2F70EB
:1021E000280F288384E295E00E94001B282F229567
:1021F0002F70219F900111248F70820F898384E2B8
:1022000095E00E94001B282F2F7322952F70219F8D
:10221000900111248F70820F8A8384E295E00E94DE
:10222000001B282F22952F70219F900111248F7061
:10223000820F8B8384E295E00E94001B282F229559
:102240002F70219F900111248F70820F8C8384E264
:1022500095E00E94001B282F22952F70219F90014E
:1022600011248F70820F8D8384E295E00E94001B01
:10227000282F2F70225E82958F70819FC0011124BC
:10228000280F2E83802F8095881F8827881FDF9135
:10229000CF911F910F9108950F931F93DF93CF93C9
:1022A000CDB7DEB727970FB6F894DEBF0FBECDBF10
:1022B0008E010F5F1F4FA8010E94F117898180686E
:1022C0008983C8010E94581089818F778983C8014A
:1022D0000E94581027960FB6F894DEBF0FBECDBFF0
:1022E000CF91DF911F910F9108950F931F93DF936B
:1022F000CF93CDB7DEB727970FB6F894DEBF0FBEEA
:10230000CDBF8E010F5F1F4FC8010E94B6108823FA
:1023100029F420E030E040E050E005C0C8010E9410
:1023200022199B01AC01B901CA0127960FB6F89496
:10233000DEBF0FBECDBFCF91DF911F910F910895EA
:1023400084E295E00E94C71B0895FC011386158660
:10235000148687E090E012863197009711F001977C
:10236000FACF0895DC0180E00BC0E82FF0E08D91FA
:1023700090E0E827F927E859FF4FE49161508E2F4C
:10238000662399F70895DF92EF92FF920F931F93C0
:10239000FC01E08001811281F894F80181818E298D
:1023A00081838281DE2CD0948D21828383E090E032
:1023B0000E94ED2EF80181818D2181838AE090E0D9
:1023C0000E94ED2EF8010081789485E390E00E9450
:1023D000ED2E80E010E0FF240E211F21012B09F0DB
:1023E00081E01F910F91FF90EF90DF900895EF92A1
:1023F000FF920F931F93CF93DF937C0101E010E0D6
:10240000C0E0D0E0C7010E94C3118111102B000F62
:102410002196C830D105B1F7812FDF91CF911F915F
:102420000F91FF90EF9008951F93CF93DF93FC01DE
:102430001081C181D281912F909560FF12C0F894D4
:102440008A8189238A838981812B89838AE090E02C
:102450000E94ED2E8A81812B8A83789487E390E015
:1024600011C0F8948A8189238A838981812B898389
:1024700081E490E00E94ED2E8A81812B8A837894FA
:1024800085E090E00E94ED2EDF91CF911F9108959D
:10249000CF92DF92EF92FF920F931F93CF93DF9330
:1024A0008C01E42EFF24F394C0E0D0E0C62EDD249E
:1024B00060E08F2D90E08C219D21892B09F061E057
:1024C000C8010E941412FF0C2196C830D10581F773
:1024D000EE20A9F4F894D8011196ED91FC91129791
:1024E00091818C918095982391831196ED91FC9127
:1024F000129792818C918095982392837894DF91A2
:10250000CF911F910F91FF90EF90DF90CF900895A2
:102510006CEC40E00E9448120895EF92FF920F93F6
:102520001F93CF93DF938C017B0165E540E00E9410
:102530004812C0E0D0E0F701EC0FFD1FC801608138
:1025400040E00E9448122196C830D105A1F7DF91E2
:10255000CF911F910F91FF90EF900895DF92EF922E
:10256000FF920F931F93CF93DF93FC010081C181F2
:10257000D281F8948981D02ED0948D21898378944A
:102580001DE7E02EFF24115059F182E090E00E94F7
:10259000ED2E888190E08E219F21892BA1F3F89464
:1025A0008A818D218A838981802B8983789484EF25
:1025B00091E00E94ED2EF89489818D21898380E538
:1025C00090E00E94ED2E888110E090E0E822F92250
:1025D000EF2809F411E0789484EA91E00E94ED2E4E
:1025E000812FDF91CF911F910F91FF90EF90DF909E
:1025F0000895AF92BF92DF92EF92FF920F931F93D5
:10260000CF93DF93EC015B018D85882309F061C0D6
:10261000CE010E94AE12882329F41B861D861C86DB
:1026200090E06BC0CE0160EF40E00E94481201E0F4
:10263000DD24EE24FF24F394CE010E94C311182F51
:10264000CE010E94C311113019F48130E1F439C078
:10265000181709F58B85081770F460E0FE01EE0D80
:10266000F11D838190E02F2D30E0822393231816F3
:1026700019064CF003C060E0081729F0093008F093
:102680004CC00C874AC0FE01EE0DF11D83818F29DD
:10269000838361E009C0612FFE01EE0DF11D9F2DC6
:1026A0009095838189238383CE010E9414120F5F4A
:1026B000FF0C19F4E394FF24F39487E08E1508F0DF
:1026C000BBCF013430F0DB86DD2011F581E08D8752
:1026D0001FC01B861D861C8690E0DE0120E030E0D6
:1026E000F501E20FF31F13968C91139780832F5FF0
:1026F0003F4F11962830310599F7892FDF91CF91FF
:102700001F910F91FF90EF90DF90BF90AF900895D1
:102710008B818823F1F291E0E0CFD02EBDCFFF92E4
:102720000F931F938C01F62E862F60E00E94542F8A
:102730008F2D90E0FC01E957FD4FE491D801EC9317
:102740008D589D4FFC016491E62FF0E0EE0FFF1FC6
:10275000E759FD4F8591949112969C938E93119712
:102760001B961C921B971D961C921D971C961C92E3
:10277000F80187E090E012863197009711F00197F9
:10278000FACF1F910F91FF900895FC018AE894E120
:10279000918B808B75836483138210828FE190E02C
:1027A0009283818308956F927F928F929F92AF92CE
:1027B000BF92CF92DF92EF92FF920F931F93CF932E
:1027C000DF93FB01EA01998180E0288130E0282B2A
:1027D000392BE081E23231F0E83221F0E03109F0CA
:1027E00084C04BC04C814F3329F1403420F44F3129
:1027F00009F07BC02FC04F3579F04F3709F075C015
:10280000B901882777FD8095982F0E94F63520E042
:1028100030E040E85DE32EC035952795B901882763
:1028200077FD8095982F0E94F63520E030E040E05B
:102830005EE320C03595279535952795B901882702
:1028400077FD8095982F0E94F63520E030E040E833
:102850005EE310C093E0359527959A95E1F7B901AD
:10286000882777FD8095982F0E94F63520E030E08C
:1028700040E05FE30E94AA3632C0EF80359527958D
:10288000B901882777FD8095982F0E94F63520E0C2
:1028900030E040E85EE30E94F2343B014C016E2DD3
:1028A00070E02E81621B7109882777FD8095982F33
:1028B0000E94F6355B016C01FF2400E010E0C801C6
:1028C000B7010E94F4359B01AC01C601B5010E941D
:1028D0005B359B01AC01C401B3010E94F3349B0141
:1028E000AC01832F942F752F00C0262F382F492F2E
:1028F000572FB901CA01DF91CF911F910F91FF901E
:10290000EF90DF90CF90BF90AF909F908F907F908F
:102910006F9008950895EF92FF920F931F938C018B
:102920007B01FC01848195810E94AE12F8018481B3
:102930009581B7010E948D12F8018481958164EB25
:1029400040E00E944812F801848195810E94C311E1
:10295000F82EF801848195810E94AE1280E0FF205C
:1029600009F481E01F910F91FF90EF900895EF928D
:10297000FF920F931F93CF93DF93EC018B017A01AA
:102980008C819D810E94AE128C819D81B8010E9434
:102990008D128C819D816EE440E00E9448128C81F2
:1029A0009D81F701628140E00E9448128C819D81E7
:1029B000F701638140E00E944812F8018081803174
:1029C00039F08C819D81F701648140E00E944812BA
:1029D0008C819D810E94AE128C819D8168E448812A
:1029E0000E9448128881882331F06AE070E080E01C
:1029F00090E00E94942E8C819D810E94AE12DF9106
:102A0000CF911F910F91FF90EF9008950F931F9317
:102A10008C01FC01848195810E94AE12F8018481B1
:102A200095810E948812F8018481958164E4408137
:102A30000E944812F801818192818F33910551F0F3
:102A40008F35910561F04F9779F46EE570E080E085
:102A500090E00EC06CEB70E080E090E009C067E7AA
:102A600071E080E090E004C06EEE72E080E090E003
:102A70000E94942E1F910F910895CF92DF92EF92B2
:102A8000FF920F931F938C016B017A01FC018481EB
:102A900095810E94AE12F80184819581B6010E9451
:102AA0008D12F801848195816EEB40E00E944812FE
:102AB000F801848195810E94F711F7018083F80164
:102AC000848195810E94F711F7018183F801848147
:102AD00095810E94F711F7018283F8018481958125
:102AE0000E94F711F7018383F801848195810E9488
:102AF000F711F7018483F801848195810E94F71111
:102B0000F7018583F801848195810E94F711F7010F
:102B10008683F801848195810E94F711F7018783EC
:102B2000F801848195810E94F711F7018087F801EF
:102B3000848195810E94AE121F910F91FF90EF90BA
:102B4000DF90CF9008950F931F938A010E943D1547
:102B5000C80168E00E94B21120E0F8019085891751
:102B600009F421E0822F1F910F910895CF92DF92F7
:102B7000EF92FF920F931F93DF93CF93CDB7DEB702
:102B800029970FB6F894DEBF0FBECDBF8C017B0135
:102B90006E010894C11CD11CA6010E94A3158823B4
:102BA00029F460E070E08EEF92EC05C0C801B70137
:102BB000A6010E94D31329960FB6F894DEBF0FBE6C
:102BC000CDBFCF91DF911F910F91FF90EF90DF90DC
:102BD000CF900895CF92DF92EF92FF921F93DF93F1
:102BE000CF93CDB7DEB729970FB6F894DEBF0FBEEF
:102BF000CDBF6C017B01142FAE014F5F5F4F0E9470
:102C0000A3158823D9F0F70180818031B9F01A30FB
:102C100051F01A3050F01B3021F01C3031F48FE7A6
:102C200005C08FE503C08FE301C08FE18D83C6012E
:102C3000B701AE014F5F5F4F0E94B71429960FB6E0
:102C4000F894DEBF0FBECDBFCF91DF911F91FF90F3
:102C5000EF90DF90CF9008950F931F938B01CB01DE
:102C600067E00E94B21120E0F8019781891709F40A
:102C700021E0822F1F910F9108959F92AF92BF92F2
:102C8000CF92DF92EF92FF920F931F93DF93CF9338
:102C9000CDB7DEB761970FB6F894DEBF0FBECDBFDC
:102CA0008C01FC01848195810E94A511F801138299
:102CB0007E010894E11CF11CE9E0AE2EB12CAC0EB3
:102CC000BD1E7FE7C72ED12C992493942DC0C80137
:102CD000B7010E942C16882339F1F80180818823DE
:102CE00041F4C801B7010E948B14882311F0F80148
:102CF0009082C801B701A5010E943D1589818031EC
:102D000021F4F801D282C1820BC08D85282F30E0DA
:102D1000F801818192818217930714F43283218311
:102D2000F80183818F5F8383F80184819581B701E6
:102D30000E94F912882359F661960FB6F894DEBF07
:102D40000FBECDBFCF91DF911F910F91FF90EF90FC
:102D5000DF90CF90BF90AF909F900895FF920F9318
:102D60001F938C01F62E0E94A61781ED92E0F801C8
:102D700091838083F5861F910F91FF900895CF93E3
:102D8000DF93EB01FC016585772767FD709584E291
:102D900095E00E94ED1A84E295E062E006C021967B
:102DA000772767FD709584E295E00E946F1B68812C
:102DB0006623A9F784E295E00E94B21BDF91CF91D0
:102DC0000895EF92FF920F931F93DF93CF93CDB7A8
:102DD000DEB72F970FB6F894DEBF0FBECDBF8C01C4
:102DE000CB017E010894E11CF11CB7014AE050E0E0
:102DF0000E949502C801B7010E94BF162F960FB618
:102E0000F894DEBF0FBECDBFCF91DF911F910F9120
:102E1000FF90EF9008951F93FC01613099F06230AC
:102E20001CF4662331F00EC0623031F0633051F48F
:102E300006C0142F105808C0142F1C5605C0142F9C
:102E40001C5202C0142F10546585772767FD7095BA
:102E500084E295E00E94ED1A84E295E061E00E9430
:102E60006F1B612F772767FD709584E295E00E94C4
:102E70006F1B84E295E00E94B21B1F910895EF92B0
:102E8000FF920F931F93E62E04E215E0FC01658587
:102E9000772767FD7095C8010E94ED1AC80163E0AD
:102EA0000E946F1BFF24E7FCF094C8016E2D0E9466
:102EB0006F1BC8010E94B21B1F910F91FF90EF90F2
:102EC0000895EF92FF920F931F93E62E04E215E010
:102ED000FC016585772767FD7095C8010E94ED1A92
:102EE000C80162E00E946F1BFF24E7FCF094C80158
:102EF0006E2D0E946F1BC8010E94B21B1F910F9183
:102F0000FF90EF9008950E94611708950F931F930B
:102F100004E215E0FC016585772767FD7095C8011F
:102F20000E94ED1AC80161E00E946F1BC80161E0B8
:102F30000E946F1BC8010E94B21B64E670E080E033
:102F400090E00E94942E1F910F910895FF920F938D
:102F50001F938C01F62E0E94DD1A81EE92E0F8019B
:102F600091838083F48684E295E00E94C71B1F91C1
:102F70000F91FF900895882319F48CB5806202C0E8
:102F80008CB58F7D8CBD08959CB5937F982B9CBD8F
:102F900008952CB5382F33702C7F322B3CBD2DB5C6
:102FA00090E0959587959595879581702E7F822BDA
:102FB0008DBD08958AE061E00E94932F8AE061E070
:102FC0000E94542F8CB580618CBD8CB580648CBD03
:102FD0008DE061E00E94542F8BE061E00E94542F4D
:102FE00008958F929F92AF92BF92CF92DF92EF920D
:102FF000FF920F931F93CF93DF937B018C01EA0124
:103000002CE330E040E050E00E944B376883C80179
:10301000B7012CE330E040E050E00E944B37122F24
:10302000032FF42EE52E622F732F842F952F2CE380
:1030300030E040E050E00E944B376983612F702FF1
:103040008F2D9E2D2CE330E040E050E00E944B3766
:10305000122F032FF42EE52E622F732F842F952F1E
:1030600028E130E040E050E00E944B376A83612F56
:10307000702F8F2D9E2D28E130E040E050E00E941F
:103080004B3779018A01C801B7016C5F7F4F8F4FC1
:103090009F4F27E030E040E050E00E944B376F5FE9
:1030A0006B8320E0AA24BB24650101C02F5F822E20
:1030B0009924F401EE54F84FCF0183709070892B5E
:1030C00099F4CF0164E670E00E943837892B39F417
:1030D000CF0160E971E00E943837892B29F48EE630
:1030E00091E0A0E0B0E004C08DE691E0A0E0B0E0A7
:1030F000A80EB91ECA1EDB1EC501A0E0B0E0E8168E
:10310000F9060A071B0790F62E83F401EE54F84FD8
:1031100083E0882E912C8E229F228114910499F4B1
:10312000CF0164E670E00E943837892B39F4CF0173
:1031300060E971E00E943837892B29F48EE691E02E
:10314000A0E0B0E004C08DE691E0A0E0B0E0A81AF5
:10315000B90ACA0ADB0A980187010A191B092C0956
:103160003D09CF0164E670E00E9438377C01CF0151
:1031700060E971E00E943837AC01EDEEF2E060E00A
:10318000613051F48114910449F4E114F10441F4E3
:103190004115510529F002C0808103C08CE101C0B6
:1031A0008DE190E0A0E0B0E0081719072A073B077F
:1031B00040F0081B190B2A0B3B0B6F5F31966C30EC
:1031C000F9F66F5F6D83802F8F5F8C83DF91CF91D6
:1031D0001F910F91FF90EF90DF90CF90BF90AF9035
:1031E0009F908F900895EF92FF920F931F937B0112
:1031F0008C018091DA049091DB04A091DC04B09101
:10320000DD04E816F9060A071B0771F0C801B701CB
:103210004FEC54E00E94F117E092DA04F092DB04E4
:103220000093DC041093DD041F910F91FF90EF9049
:1032300008950E94F3182091D50430E02E54384FA1
:10324000C90108954F925F926F927F928F929F92E1
:10325000AF92BF92CF92DF92EF92FF920F931F93A4
:10326000CF93DF934C01DC0116961C91612F70E027
:1032700080E090E020E833E341EE51E00E940D371A
:103280005B016C0122EB37E0E12FF0E0EE54F84FE8
:103290001DC0C90183709070892BB1F4C90164E627
:1032A00070E00E943837892B39F4C90160E971E078
:1032B0000E943837892B41F480E891E5A1E0B0E025
:1032C000A80EB91ECA1EDB1E2F5F3F4F2E173F07E9
:1032D00001F7D40115968C91482E5524C90164E656
:1032E00070E00E9438377C01C90160E971E00E94FA
:1032F00038378C01C1E0D0E093E0692E712C622256
:10330000732227C0C230D10591F46114710479F49D
:10331000E114F10419F40115110549F480E89BE367
:10332000A6E2B0E0A80EB91ECA1EDB1E11C0FE0147
:10333000E451FD4F608170E080E090E020E831E5ED
:1033400041E050E00E940D37A60EB71EC81ED91EE0
:103350002196C415D505B4F2D40112966C9170E093
:1033600080E090E020E13EE040E050E00E940D3738
:103370007B018C01F401618170E080E090E02CE33E
:1033800030E040E050E00E940D37E60EF71E081FC7
:10339000191FD4018C91E80EF11C011D111D14960A
:1033A0006C9170E061507040882777FD8095982F70
:1033B00020E831E541E050E00E940D37E60EF71EAF
:1033C000081F191FEA0CFB1C0C1D1D1DB701C801AD
:1033D000DF91CF911F910F91FF90EF90DF90CF90F1
:1033E000BF90AF909F908F907F906F905F904F9025
:1033F00008956093C5047093C6048093C7049093A6
:10340000C8042091C2023091C3024091C40250917D
:10341000C502260F371F481F591F2093C904309338
:10342000CA044093CB045093CC0482E090E0909384
:10343000CE048093CD040E94862E6093D6047093B0
:10344000D7048093D8049093D9040895EF92FF9203
:103450000F931F931CC02F5F3F4F4F4F5F4F209321
:10346000C5043093C6044093C7045093C80488EE43
:1034700093E0A0E0B0E0E80EF91E0A1F1B1FE092E7
:10348000D604F092D7040093D8041093D9040E9474
:10349000862EE090D604F090D7040091D8041091C5
:1034A000D9046E197F09800B910B2091C5043091CE
:1034B000C6044091C7045091C804685E73408040C0
:1034C000904048F68091C9049091CA04A091CB0421
:1034D000B091CC04281739074A075B07E8F0E09160
:1034E000C304F091C4043097B9F0099561157105D2
:1034F0008105910519F00E94F9190EC020E030E015
:103500008091CD049091CE04892B11F021E030E020
:103510003093CE042093CD046091C5047091C6040D
:103520008091C7049091C8041F910F91FF90EF9074
:1035300008959093C4048093C3048091C50490912E
:10354000C604A091C704B091C8048093C9049093A5
:10355000CA04A093CB04B093CC040E94261A089509
:103560000E94261A0E94191908950E94261A0E9484
:10357000F3188091D40490E008950E94261A0E94C6
:10358000F3188091D30490E008950E94261A0E94B7
:10359000F3188091CF0490E008950E94261A0E94AB
:1035A000F3188091D00490E008950E94261A0E949A
:1035B000F3188091D10490E00895FC0113821282E7
:1035C00088EE93E0A0E0B0E084839583A683B78380
:1035D0008DEF92E091838083089581E080932305AD
:1035E0006093000510922105109222050895209104
:1035F000FF0430E08091FE04281B3109C9010895C1
:103600004091FE048091FF04481718F02FEF3FEF20
:103610000AC0E42FF0E0E252FB4F8081282F30E017
:103620004F5F4093FE04C9010895E091FE0480912C
:10363000FF04E81718F0EFEFFFEF06C0F0E0E252EA
:10364000FB4F8081E82FF0E0CF010895089510929C
:1036500027051092260588EE93E0A0E0B0E0809365
:10366000280590932905A0932A05B0932B058DEF8B
:1036700092E090932505809324050895CF92DF92E0
:10368000EF92FF920F931F93CF93DF937C016B0117
:103690008A01809123058823A1F0C0E0D0E00DC00D
:1036A000D701ED91FC91D601AC0FBD1F0190F081C7
:1036B000E02DC7016C9109952196C017D10780F3C1
:1036C00004C0CB01642F0E94701CC801DF91CF9110
:1036D0001F910F91FF90EF90DF90CF900895DF93AF
:1036E000CF930F92CDB7DEB7FC016983809123059C
:1036F0008823C9F080912205803238F081E090E083
:103700009383828320E030E015C080912105E82F6B
:10371000F0E0EF5FFA4F998190838F5F80932105EE
:103720008093220505C0CE01019661E00E94701CC5
:1037300021E030E0C9010F90CF91DF9108950F9300
:10374000062F8091000561E075E04091220521E09F
:103750000E941B1C10922105109222051092230535
:103760000F91089561E00E949F1B0895413208F077
:1037700040E2862F6EED74E00E94D21B1092FE0490
:103780008093FF04089521E00E94B61B08951092D3
:10379000FE041092FF0410922105109222050E944F
:1037A0001C1E0895382F413210F040E042C0809135
:1037B00030058823E1F791E090933005209332059E
:1037C0008FEF80939D051092580541504093590505
:1037D0004F5F9093310580913105330F832B809398
:1037E000310580913305813041F410923305809189
:1037F00031058093BB0085EC01C085EE8093BC0051
:10380000809130058130E1F380915805841710F4E0
:103810004091580520E030E00AC0FB01E20FF31FA1
:10382000D901A85CBA4F8C9180832F5F3F4F24173A
:10383000A0F3842F08950F931F93582F122F413216
:1038400010F081E04AC0809130058823E1F782E0E2
:1038500080933005009332058FEF80939D05109281
:10386000580540935905A8E3B5E0FB0102C08191DA
:103870008D938E2F861B8417D0F310923105809183
:103880003105550F852B80933105809133058130AB
:1038900041F410923305809131058093BB0085EC93
:1038A00001C085EE8093BC00112321F0809130058A
:1038B0008230E1F380919D058F3F11F480E00DC0CF
:1038C00080919D05803211F482E007C080919D05B2
:1038D000803311F084E001C083E01F910F910895BF
:1038E000482F613210F081E00895809130058430D6
:1038F00011F082E0089560937B05AAE5B5E0842F7E
:103900009C01F90102C081918D938E2F841B861733
:10391000D0F380E008951F920F920FB60F921124FA
:103920002F933F934F935F936F937F938F939F93C7
:10393000AF93BF93EF93FF938091B90090E0887F9E
:1039400090708036910509F4F2C081369105CCF56E
:103950008832910509F47BC089329105B4F4803135
:10396000910509F46FC0813191053CF4009709F489
:1039700047C1089709F04FC165C08831910509F426
:1039800066C0809709F047C182C08034910509F470
:10399000A4C08134910544F48033910509F482C0B8
:1039A000C89709F038C189C08035910509F489C0EC
:1039B0008835910509F496C08834910509F02BC12A
:1039C000AEC08839910509F413C189399105ECF429
:1039D0008837910509F4ABC0893791054CF48836D6
:1039E000910509F4A4C08037910509F014C19FC066
:1039F0008838910509F4FCC08039910509F49DC00F
:103A00008038910509F007C198C0803B910509F401
:103A1000C6C0813B91054CF4803A910509F49FC0E2
:103A2000883A910509F0F7C0BAC0803C910509F4C5
:103A3000E3C0883C910509F4DFC0883B910509F09B
:103A4000EAC0C2C0809131058093BB00CFC0909185
:103A5000580580915905981768F490915805E92FF9
:103A6000F0E0E85CFA4F80818093BB009F5F909309
:103A70005805BCC080913205882309F44BC085ED00
:103A80008093BC008091BC0084FDFCCFC2C080E26A
:103A900080939D0585ED8093BC008091BC0084FDE2
:103AA000FCCFB7C080E380939D0585ED8093BC007B
:103AB0008091BC0084FDFCCFACC088E380939D0561
:103AC0009BC0809158059091BB00E82FF0E0E85C26
:103AD000FA4F90838F5F809358059091580580919D
:103AE000590582C0809158059091BB00E82FF0E005
:103AF000E85CFA4F90838F5F809358058091320580
:103B0000882341F085ED8093BC008091BC0084FD4A
:103B1000FCCF7FC081E08093330584EA6EC085EDE1
:103B20008093BC008091BC0084FDFCCF72C083E018
:103B30008093300510929C0559C080919C0580327D
:103B400008F056C080919C059091BB00E82FF0E0F2
:103B5000E458FA4F90838F5F80939C0547C0809113
:103B60009C05803230F4E0919C05F0E0E458FA4F77
:103B7000108285ED8093BC008091BC0084FDFCCF59
:103B80001092300560919C05E0913605F091370563
:103B90008CE795E070E0099510929C052DC084E0BB
:103BA0008093300510927A0510927B05E0913405E0
:103BB000F0913505099580917B05882329F481E0F2
:103BC00080937B0510925A0590917A05E92FF0E0D9
:103BD000E65AFA4F80818093BB009F5F90937A05ED
:103BE00090917A0580917B05981710F485EC01C0BF
:103BF00085E88093BC000FC085EC8093BC0009C0B1
:103C000010929D0585ED8093BC008091BC0084FDE1
:103C1000FCCF10923005FF91EF91BF91AF919F9132
:103C20008F917F916F915F914F913F912F910F9065
:103C30000FBE0F901F9018951092300581E0809371
:103C400032051092330582E161E00E94932F83E1F7
:103C500061E00E94932FE9EBF0E080818E7F80830A
:103C600080818D7F808388E48093B80085E4809391
:103C7000BC000895EF92FF920F931F93CF93DF93B1
:103C80008C0150919E05D80117962C911797159687
:103C90004C91159790919E0516963C9116978091A0
:103CA0009E05809583239423892B25278223909139
:103CB0009E0517969C9317971896CD91DC911997AE
:103CC000E82EFF241CC08B81282F30E0C7018223FF
:103CD0009323892B89F080919E0540E090E0822318
:103CE0009323892B09F041E04093A0058C818093B8
:103CF0009F05E881F98109950D80DE81C02D20970F
:103D000011F78BB3F8019481892351F08BB3892B80
:103D10008BBB0190F081E02D808180939E05B1CF17
:103D2000DF91CF911F910F91FF90EF9008951F9217
:103D30000F920FB60F9211242F933F934F935F93DF
:103D40006F937F938F939F93AF93BF93EF93FF9363
:103D5000E091A105F091A205808180939E0581EA02
:103D600095E00E943A1EFF91EF91BF91AF919F9114
:103D70008F917F916F915F914F913F912F910F9014
:103D80000FBE0F901F9018951F920F920FB60F92B3
:103D900011242F933F934F935F936F937F938F9350
:103DA0009F93AF93BF93EF93FF93E091AB05F09197
:103DB000AC05808180939E058BEA95E00E943A1EB7
:103DC000FF91EF91BF91AF919F918F917F916F91F3
:103DD0005F914F913F912F910F900FBE0F901F90C9
:103DE00018951F920F920FB60F9211242F933F93A5
:103DF0004F935F936F937F938F939F93AF93BF93F3
:103E0000EF93FF93E091B505F091B6058081809323
:103E10009E0585EB95E00E943A1EFF91EF91BF91C0
:103E2000AF919F918F917F916F915F914F913F9152
:103E30002F910F900FBE0F901F901895EDE6F2E0B6
:103E4000859194919093A2058093A1058BE690E0D3
:103E50009093A4058093A30581E08093A50510921B
:103E6000A6051092A7051092AA051092A905EFE6E3
:103E7000F2E0859194919093AC058093AB058CE62C
:103E800090E09093AE058093AD0582E08093AF05FE
:103E90001092B0051092B1051092B4051092B305BE
:103EA000E1E7F2E0859194919093B6058093B50592
:103EB0008DE690E09093B8058093B70584E08093F9
:103EC000B9051092BA051092BB051092BE0510926A
:103ED000BD050895FC0112820895FC0112826683DB
:103EE00045830895FC01848190E024E096958795B0
:103EF0002A95E1F781700895FC0184818295869569
:103F0000877019F020E030E003C09F01295F3F4F28
:103F1000C9010895CF93DF939C01FC0184818770D0
:103F2000843019F060E070E03DC061157105D1F199
:103F300040E027C0ED01CC0FDD1FF901EA0FFB1FA8
:103F40008781992787FD909554E0959587955A9597
:103F5000E1F78F708A3010F4805D01C0895CFB014D
:103F6000EC0FFD1F8083A20FB31F17968C918F70EB
:103F70008A3010F4805D01C0895CC60FD71F898329
:103F80004F5FA42FB0E0F9018381869586958695D1
:103F9000E82FF0E0AE17BF076CF2EE0FFF1FE60F41
:103FA000F71F1082CB01DF91CF910895FC0183812F
:103FB00087708860838384818F7180628483678344
:103FC000CF010895FC018381877088628383848197
:103FD000806E848347835087618772872387CF01F0
:103FE0000895FC0184818F7180648483838187704C
:103FF0008061838370876783CF010895CF93DF93B8
:10400000EC01DB010D900020E9F71197A61B4A2F68
:1040100050E09A01F3E0220F331FFA95E1F78B810C
:104020008770822B8B838C818F718C83A93110F0E8
:1040300049E150E0CE0107960E946A02CE01DF916D
:10404000CF910895FC01848182958695877090E0D8
:104050008230910519F4278130850AC0892B19F027
:1040600020E030E005C0CF0107960E9425029C01A8
:10407000C90108950E94222020E0892B09F021E047
:10408000822F0895FC01848182958695877090E047
:104090008130910511F487810895892B11F080E01A
:1040A0000895CF0107960E9425020895FC0184819E
:1040B00082958695877090E08530910529F4278157
:1040C00030854185528510C0892B29F020E030E0F1
:1040D00040E050E009C0CF0107960E944302AC01C6
:1040E000CB01DA019C01AD01B901CA010895EF923B
:1040F000FF920F931F93CF93DF93EC017B018C8191
:10410000829586958770A1F4BE01695F7F4F4B81D0
:10411000469546954695C70150E00E946A028B81FC
:10412000869586958695F701E80FF11D108246C0A9
:104130006115710509F442C0813019F48F8190E056
:1041400004C0823041F48F819885B7014AE050E085
:104150000E94950233C0833039F48F8198854AE0FC
:1041600050E00E942C032AC0843051F46F8178857E
:1041700089859A85A7012AE030E00E94B6021EC018
:10418000853051F46F81788589859A85A7012AE069
:1041900030E00E94070312C0873051F46F817885A8
:1041A00089859A8542E02B8587010E94040206C01A
:1041B000863021F4CE010E948A1F7C01C701DF9165
:1041C000CF911F910F91FF90EF9008959C01F99965
:1041D000FECF32BD21BDF89A80B50895EF92FF92CF
:1041E0000F931F93DF93CF93CDB7DEB7CC52D1405F
:1041F0000FB6F894DEBF0FBECDBFC95CDE4FE880BE
:10420000F980C753D140CB5CDE4FA881B981C5533B
:10421000D14054968C91882389F1EDB7FEB73A9737
:104220000FB6F894FEBF0FBEEDBF31968E010F5F43
:104230001F4FADB7BEB712961C930E9311978BE22A
:1042400091E09383828388E691E09583848383E081
:1042500090E09783868389E090E0918780870E9431
:104260004203EDB7FEB73A960FB6F894FEBF0FBE05
:10427000EDBF81E696E0B8010E94DC34FE01E75C08
:10428000FE4FCB5CDE4FA881B981C553D140549617
:104290008C919E012F5F3F4F882359F0C9016CE339
:1042A00070E0A7019F010E9473038AE08CAF1DAEEE
:1042B00007C0C9016BE271E0A7019F010E9473036F
:1042C00081E696E0BE016F5F7F4F0E94DC3481E69D
:1042D00096E00E94DA32C45DDE4F0FB6F894DEBF7E
:1042E0000FBECDBFCF91DF911F910F91FF90EF9047
:1042F00008955F926F927F928F929F92AF92BF923A
:10430000CF92DF92EF92FF920F931F93CF93DF93A1
:104310007C01562EEA01822E8B81982E96949694DB
:104320009694D7011E969C919883887F82608B8398
:10433000DE2CCF2CC7010E94232DC7010E943E2DE9
:1043400030E040E050E060E070E080E090E0052D7B
:10435000F1E03D3F08F4F0E0E1E0423E08F4E0E047
:1043600031EEA32EAF0EE060F1E0593A08F4F0E030
:1043700028EAB22EBE0EE1E0B8EABB1608F0E0E093
:10438000FE2BA1E0693A08F4A0E0BF2FB855E1E0A8
:10439000B83A08F0E0E0AE2BF1E0772309F4F0E062
:1043A000E1E0882309F4E0E08D2D9C2D1CEF9501C0
:1043B0004B2F5A2F6F2F7E2F0E94642B892D90E058
:1043C0004A9714F040E202C0492D495F8D2D9C2D83
:1043D000BE01282D0E94172B682E8D2D9C2D0E942A
:1043E000592DB980A8809A808E801C817D800B8198
:1043F000662029F495E4C92E92E0D92E04C08AE4FF
:10440000C82E82E0D82EB701695A7F4FCE010E9494
:104410007720EDB7FEB77A970FB6F894FEBF0FBEC0
:10442000EDBF3196ADB7BEB71296FC92EE921197E2
:1044300020EE31E033832283B4821582A682178274
:10444000508611869286138684861586212F30E049
:104450002770307037872687708A118A12951695D3
:104460001770128B138A069506950695048B158A8C
:10447000D78AC68A918F808F0E94EE20EDB7FEB753
:104480007A960FB6F894FEBF0FBEEDBF862DDF9172
:10449000CF911F910F91FF90EF90DF90CF90BF9041
:1044A000AF909F908F907F906F905F9008954F9204
:1044B0005F926F927F928F929F92AF92BF92CF92B4
:1044C000DF92EF92FF920F931F93DF93CF930F92A0
:1044D000CDB7DEB74C01582E492C8E010F5F1F4F10
:1044E000B8010E94042D882309F4D6C2898187303F
:1044F00008F0D2C2C4010E94142A482F65E1662E3A
:10450000712C680C791CC401B3010E940A2BC401F0
:104510006981A80121E00E94A629D40158960C9136
:1045200006950695069510E0F401E00FF11F148E34
:10453000F401E688D588C788B38CF18CA28CB401CD
:10454000695A7F4FC3010E9477202DB73EB726518D
:1045500030400FB6F8943EBF0FBE2DBFEDB7FEB78B
:104560003196ADB7BEB712969C928E92119723EBFF
:1045700031E033832283E4821582D6821782C0869B
:104580001186B28613862F2D30E027703070358764
:104590002487A6861786F294F69457E0F522F08ACF
:1045A000118A138B028B958B848B0E94EE20F40171
:1045B000808D87702DB73EB72A5E3F4F0FB6F894B7
:1045C0003EBF0FBE2DBF8230B1F000D000D0ADB7DE
:1045D000BEB712969C928E92119781EA91E0149642
:1045E0009C938E9313970E94EE2080E00F900F9083
:1045F0000F900F9052C2F401218D022F0770128D7F
:10460000E688F58837899289992379F1033069F52D
:10461000173059F50E94862E7370807090700E943A
:10462000942ED4011E968C911E9756968C93569775
:104630005796EC9257978FEF5B968C935B9788E039
:104640005A968C935A9759968C915997807E83608D
:1046500059968C935997C30150966C910E94D61F1E
:10466000AC01C4016E2D21E0F5C1F4018685381737
:1046700009F0DBC123FF22C0D401D696759681E2F2
:1046800001900D928150E1F7D401DA968C91DA977E
:10469000877F8061DA968C93DA971E968C911E97AD
:1046A000D7968C93D79756968C915697D8968C938D
:1046B000B4016A5C7F4FC4010E942126F401828903
:1046C000882319F18785F81601F12E2D30E081E756
:1046D00090E0880E991ED401ED91FC918FE89FEF38
:1046E000880E991EE20FF31F80818F1571F0F08202
:1046F000F999FECF1FBA2D5F3F4F32BD21BDF0BCEF
:104700000FB6F894FA9AF99A0FBE033009F080C1F7
:10471000183009F053C0D40154968C91882309F0C5
:104720004DC0C3010E944220482F282F30E0F401E1
:10473000808990E00197281739070CF0ADC14F5FD1
:10474000408B26892787F999FECF1FBA81E090E038
:1047500092BD81BD20BD0FB6F894FA9AF99A0FBEAA
:10476000D40150963C91F999FECF1FBA82E090E0B7
:1047700092BD81BD30BD0FB6F894FA9AF99A0FBE7A
:10478000EDB7FEB738970FB6F894FEBF0FBEEDBF7A
:104790003196ADB7BEB712969C928E9211978CE867
:1047A00091E09383828324831582368317820E944B
:1047B000EE2080E0EDB7FEB7389696C0EE2009F007
:1047C00027C11D3061F428E088E190E00FB6F8942D
:1047D000A895809360000FBE20936000FFCF143037
:1047E00009F088C0D4011E968C918F3F09F054C106
:1047F000C3010E944220F40186878F3FA9F400D0B4
:1048000000D0ADB7BEB712969C928E92119786E8F3
:1048100091E014969C938E9313970E94EE200F9034
:104820000F900F900F90FFCF282F30E040E050E026
:1048300060E070E080E090E0E22E01E03D3F08F4AF
:1048400000E011E0423E08F410E00F511060E1E09A
:10485000593A08F4E0E01855F1E0183A08F0F0E0B1
:10486000EF2BF1E0693A08F4F0E0BE2FB855E1E033
:10487000B83A08F0E0E0FE2BA1E0772309F4A0E0CD
:10488000E1E0882309F4E0E0852D942D61E04CEF10
:10489000F42E2B2F3F2F4A2F5E2F0E94852CF401E0
:1048A0002685F999FECF1FBA12BC11BC20BD0FB6E8
:1048B000F894FA9AF99A0FBE00D000D000D0EDB764
:1048C000FEB73196ADB7BEB712969C928E921197F5
:1048D0008FE791E093838283248315820E94EE20E8
:1048E00080E0EDB7FEB736960FB6F894FEBF0FBE68
:1048F000EDBFD3C01630D9F4C3010E947C1FFC0168
:1049000020E080818D3409F421E0D40151968C910E
:104910005197821709F4C0C051962C93F999FECF94
:104920001FBA83E091E092BD81BD20BDB0C01A30B6
:1049300009F05AC0F4018289882309F4ADC0C3018B
:104940000E947C1FFC018081833409F0A5C000D047
:1049500000D0ADB7BEB712969C928E92119785E7A4
:1049600091E014969C938E9313970E94EE2020E082
:1049700030E00F900F900F900F90D401AF58BF4FC1
:104980009FEFED91FC911197E20FF31F80818F3F14
:1049900081F09083F999FECF1FBA2D5F3F4F32BD52
:1049A00021BD2350304090BD0FB6F894FA9AF99A81
:1049B0000FBE2F5F3F4F2230310519F7F401868576
:1049C000868B178A8FEF838F8AE0828F818D807E1E
:1049D0008360818FC3016DE472E00E94FE1FBC0101
:1049E000C4010E94212658C0113009F055C023E7A8
:1049F00030E0820E931ED4010D911C91011511051A
:104A000009F44AC0C3010E945620F801099544C028
:104A1000E5E7F0E08E0E9F1ED401ED91FC913097FA
:104A200011F0C301099581E038C09923A9F189816A
:104A3000813091F584010F581F4FD801ED91FC9101
:104A4000E30FF11D6081862F81508E3F30F4C40149
:104A5000A30120E00E9479211FC0C401F4016785F1
:104A6000A30120E00E9479216E2D70E0D801ED9124
:104A7000FC91E60FF71F80818F1571F0F082F99994
:104A8000FECF1FBA6D5F7F4F72BD61BDF0BC0FB628
:104A9000F894FA9AF99A0FBE80E00F90CF91DF91C7
:104AA0001F910F91FF90EF90DF90CF90BF90AF904C
:104AB0009F908F907F906F905F904F900895EF92AE
:104AC000FF920F931F93CF93DF93EC010E94862EEA
:104AD0007B018C0103C0CE010E9457220E94862ECA
:104AE0006E197F09800B910B605D7740804090408C
:104AF00090F3DF91CF911F910F91FF90EF90089568
:104B0000EF92FF920F931F938C0100591F4FF801F2
:104B10001082005710409FEFF801908B8685868B9E
:104B2000978B938F87E0828F818D807E8360818FCA
:104B300075E1E72EF12CE00EF11EC7016DE472E085
:104B40000E94FE1FC8016FEFA70121E00E9479219A
:104B5000C8010E945F251F910F91FF90EF9008956B
:104B6000EF92FF920F931F93CF93DF93EC0100D04E
:104B700000D0EDB7FEB79283818386E192E0948303
:104B800083830E94EE200F900F900F900F908E85E0
:104B9000282F30E040E050E060E070E080E090E0FE
:104BA000E22E01E03D3F08F400E011E0423E08F44F
:104BB00010E00F511060E1E0593A08F4E0E01855B8
:104BC000F1E0183A08F0F0E0EF2BF1E0693A08F470
:104BD000F0E0BE2FB855E1E0B83A08F0E0E0FE2B77
:104BE000A1E0772309F4A0E0E1E0882309F4E0E004
:104BF000CE0161E02CEFF22E2B2F3F2F4A2F5E2F9C
:104C00000E94852C8E858E8B1F8A8FEF8B8F83E081
:104C10008A8F898D807E8360898FCE0145966DE471
:104C200072E00E94FE1FBC01CE010E942126CE012F
:104C30000E945F25DF91CF911F910F91FF90EF9020
:104C400008951F93CF93DF93EC01DB0120E01496CE
:104C50008C9114978770833009F421E08E858F3F03
:104C600059F4222329F015968C911597833021F061
:104C7000CE010E94B0252CC08A89882331F112967A
:104C80009C911297CF58DF4FE881F981C157D040EE
:104C9000E90FF11D6081862F81508E3F30F49923FA
:104CA00021F0CE01AD0120E00DC0222371F0159658
:104CB0008C911597843049F49F3F39F4CE016FEF02
:104CC000AD0121E00E94792127C08C89882311F051
:104CD00080E022C0CE016F85AD0120E00E947921E5
:104CE000182F882329F011E0C059DF4F188213C014
:104CF0008B89882351F0C059DF4F8881C057D0403D
:104D0000863018F0CE010E948025FE01E059FF4F49
:104D100080818F5F8083812FDF91CF911F910895D4
:104D2000FC01ED58FF4F71836083E357F0408685A7
:104D3000868B178A8FEF838F81E0828F818D807EB3
:104D40008360818FCF017596BF010E94212608954F
:104D5000FF920F931F93CF93DF93EC018A01F22E02
:104D600061157105E9F08E858E8B1F8A8FEF8B8F11
:104D70008BE08A8F30E02170307053E0220F331FB8
:104D80005A95E1F7898D807F8360822B8F7E898F92
:104D9000CE0145960E94FE1FBC01CE010E94212635
:104DA00001151105F9F08E858E8B1F8A8FEF8B8F81
:104DB0008CE08A8F2F2D30E02170307043E0220F7D
:104DC000331F4A95E1F7898D807F8360822B8F7E28
:104DD000898FCE014596B8010E94FE1FBC01CE010D
:104DE0000E942126DF91CF911F910F91FF9008958E
:104DF0000F931F938C01FC018685868B178A638F26
:104E0000428F30E02170307063E0220F331F6A95CB
:104E1000E1F7818D807F822B8F7E818FC80145963F
:104E20006EE472E00E94FE1FBC01C8010E942126B0
:104E30001F910F910895DC01FB011E968C911E9726
:104E4000818350E04170507083E0440F551F8A9574
:104E5000E1F78481807F8160842B8483CD010E946F
:104E60002126811181E008950F931F938C0180E02A
:104E700091E00E948F330F581F4FF8018083918378
:104E800063E070E040E051E026EE30E20E947902FB
:104E90001F910F910895EF92FF920F931F93CF935D
:104EA000DF93EC01E62EF42E8901C059DF4F188202
:104EB000C057D040CE010E94922DCE010E948C2975
:104EC000882389F400D000D0EDB7FEB7D283C18328
:104ED00083E292E0948383830E94EE200F900F90F0
:104EE0000F900F90FFCFCE0161E00E94002BCE010A
:104EF00062E040E00E941E2CCE010E944A2CCE01AE
:104F00006F2D0E94312BCE016E2D0E94052CCE01FB
:104F1000B8010E94D42BCE0165E04FE00E94F62A32
:104F2000CE0162E070E00E94B92BCE010E94662C97
:104F3000CE0162E0EE24EA942CEFF22E01EE18EAA4
:104F400028EA30E040E050E00E94852CDF91CF91CC
:104F50001F910F91FF90EF9008958F929F92AF92C3
:104F6000BF92CF92DF92EF92FF920F931F93CF9356
:104F7000DF93EC014B01D42E122F81E696E040E046
:104F800052EC61E070E00E94F9311C8A1A8A112308
:104F900011F081E08A8BCB58DF4F99828882C55708
:104FA000D0408A89882319F0CE010E943427CE018F
:104FB000B7014C2D95010E944B27CE010E9660E063
:104FC00070E043E050E026EE30E20E947902CE012C
:104FD000419663E071E041E050E026EE30E20E944D
:104FE000790289898F3F11F481E0898B0F3F19F095
:104FF0000F871B8A02C081E08B8B8FEFD812DE8671
:105000008B89882331F08F858F3F19F4CE010E9460
:1050100080258E858F3F19F4CE010E94B0258A89A4
:10502000882319F422E532E002C029E532E0ADB769
:10503000BEB718970FB6F894BEBF0FBEADBFEDB7A1
:10504000FEB731961296DC93CE93119780E392E0EF
:1050500093838283358324838E85868317820E947F
:10506000EE20DC2ECD2E8DB79EB708960FB6F894A5
:105070009EBF0FBE8DBF8E85282F30E040E050E0F0
:1050800060E070E080E090E0E22E01E03D3F08F457
:1050900000E011E0423E08F410E00F511060E1E042
:1050A000593A08F4E0E01855F1E0183A08F0F0E059
:1050B000EF2BF1E0693A08F4F0E0BE2FB855E1E0DB
:1050C000B83A08F0E0E0FE2BA1E0772309F4A0E075
:1050D000E1E0882309F4E0E08D2D9C2D60E04CEFA9
:1050E000F42E2B2F3F2F4A2F5E2F0E94852C8E856A
:1050F000282F30E040E050E060E070E080E090E099
:10510000E22E01E03D3F08F400E011E0423E08F4E9
:1051100010E00F511060E1E0593A08F4E0E0185552
:10512000F1E0183A08F0F0E0EF2BF1E0693A08F40A
:10513000F0E0BE2FB855E1E0B83A08F0E0E0FE2B11
:10514000A1E0772309F4A0E0E1E0882309F4E0E09E
:105150008D2D9C2D61E03CEFF32E2B2F3F2F4A2FFE
:105160005E2F0E94852C8A89882311F441E101C0B9
:1051700042E1CE016FEF20E00E94F8268E858E8BF3
:105180001F8A8FEF8B8F86E08A8F898D807E836068
:10519000898FCE0145966F850E94D61FBC01CE0136
:1051A0000E942126CE010E945F25DF91CF911F91A1
:1051B0000F91FF90EF90DF90CF90BF90AF909F90B6
:1051C0008F9008950F931F938C010E947B29C80133
:1051D00045960E946A1FC801C6960E946A1F1F91C9
:1051E0000F9108951F920F920FB60F9211248F9373
:1051F00088E10FB6F89480936000109260000FBEB3
:105200008F910F900FBE0F901F9018958091C5053C
:105210009091C605A091C705B091C8050196A11D42
:10522000B11D8093C5059093C605A093C705B093A3
:10523000C8058091C5059091C605A091C705B0919C
:10524000C8052091BF053091C0054091C10550911E
:10525000C20582179307A407B50710F18091C9050D
:105260008823F1F481E08093C9058091C505909170
:10527000C605A091C705B091C805821B930BA40B6E
:10528000B50B8093C5059093C605A093C705B09351
:10529000C805E091C305F091C40509951092C905B0
:1052A00008951F920F920FB60F9211242F933F93E0
:1052B0004F935F936F937F938F939F93AF93BF931E
:1052C000EF93FF938091CA059091CB058093B20034
:1052D0000E940629FF91EF91BF91AF919F918F910D
:1052E0007F916F915F914F913F912F910F900FBEE2
:1052F0000F901F901895FC016083418312821382E6
:1053000080E28483158216821782108611861286A7
:105310001386148615860895FC0183810895FF92F3
:105320000F931F938C01F62E81E00E94BB1780E043
:105330000E94C41784E00E94C917F80181816F2D73
:105340000E94932F1F910F91FF900895EF92FF926B
:105350000F931F93CF93DF93EC01162F042FF52E9D
:10536000E22E60E00E948F291770186A1EBD0DB4EE
:1053700007FEFDCF802F9F2D9C01F9012E2D21329C
:1053800008F020E28EB508C080818EBD0DB407FE06
:10539000FDCF31968EB521502223B1F7CE0161E0C9
:1053A0000E948F29DF91CF911F910F91FF90EF9075
:1053B0000895CF93DF93EC0160E00E948F2980E590
:1053C0008EBD0DB407FEFDCF8EB583E78EBD0DB447
:1053D00007FEFDCF8EB5CE0161E00E948F29DF91DF
:1053E000CF9108951F93CF93DF93EC01162F60E0C8
:1053F0000E948F291EBD0DB407FEFDCF1EB5CE0144
:1054000061E00E948F29812FDF91CF911F91089534
:105410006FEF0E94F229089561EE0E94F22908952B
:1054200062EE0E94F22908951F93CF93DF93EC015F
:1054300060E00E948F2980E68EBD0DB407FEFDCF8F
:105440008EB58FEF8EBD0DB407FEFDCF1EB5CE011C
:1054500061E00E948F29113220F0CE010E94102AB3
:1054600010E0812FDF91CF911F910895EF92FF926D
:105470000F931F93CF93DF93EC01F62EE72E9C81C1
:10548000142F941708F4192F8D81882311F000E050
:1054900002C0092F011BCE0160E00E948F2981E626
:1054A0008EBD0DB407FEFDCF8F2D9E2D9C01F90101
:1054B000FEB49FEF07C09EBD0DB407FEFDCF8EB5B5
:1054C000819311501123B9F707C08EBD0DB407FEAB
:1054D000FDCF9EB5015001C08FEF0023B1F7CE0183
:1054E00061E00E948F298F2DDF91CF911F910F9145
:1054F000FF90EF900895DF92EF92FF920F931F932A
:10550000CF93DF93EC01E62ED72EF22E9C81142F41
:10551000941708F4192F8D81882311F000E002C040
:10552000092F011BCE0160E00E948F29FEBC0DB443
:1055300007FEFDCF8E2D9D2D9C01F901FEB408C004
:1055400080818EBD0DB407FEFDCF31968EB5115012
:105550001123B1F706C01EBC0DB407FEFDCF8EB5FA
:1055600001500023C1F7CE0161E00E948F298F2DE9
:10557000DF91CF911F910F91FF90EF90DF900895F1
:10558000CF93DF93EC01222311F420EA01C020EB3A
:10559000CE010E947B2A888161E00E94932F88813E
:1055A00060E00E94932FDF91CF9108950F931F9396
:1055B000CF93DF93EC01162F042F60E00E948F2918
:1055C0001F7110621EBD0DB407FEFDCF1EB50EBDCE
:1055D0000DB407FEFDCF8EB5CE0161E00E948F298C
:1055E000812FDF91CF911F910F910895262F4F703A
:1055F0002295207F242B64E0422F0E94D62A089512
:10560000662319F061E04FE302C061E040E00E94D0
:10561000D62A08950F931F938C010E94362AC80141
:1056200067E040E70E94D62A1F910F910895CF931B
:10563000DF93EC010E94C02ACE010E94082A8073E9
:10564000D9F3CE0167E040E70E94D62A84FD02C06C
:1056500081E004C0CE010E940C2A80E0DF91CF914E
:105660000895462F603808F04FE765E00E94D62A7B
:105670000895EF92FF920F931F93CF93DF937C01D6
:10568000162FEA01022F60E00E948F291F7110621D
:105690001EBD0DB407FEFDCF1EB508C088818EBDAE
:1056A0000DB407FEFDCF21968EB501500023B1F752
:1056B000C70161E00E948F29812FDF91CF911F9157
:1056C0000F91FF90EF900895EF92FF920F931F9329
:1056D000DF93CF93CDB7DEB728970FB6F894DEBF30
:1056E0000FBECDBF7C0109831A832B833C834D837E
:1056F0005E836F8378878E010F5F1F4F6AE0A8017A
:1057000025E00E94392BC70160E1A80125E00E9435
:10571000392BC70161E1F70144810E94D62A2896FE
:105720000FB6F894DEBF0FBECDBFCF91DF911F91B2
:105730000F91FF90EF9008951F93CF93DF93EC01AB
:10574000162F60E00E948F291F711EBD0DB407FE49
:10575000FDCF8EB58FEF8EBD0DB407FEFDCF1EB50C
:10576000CE0161E00E948F29812FDF91CF911F919F
:1057700008950F931F93CF93DF938C01EB0160E0AB
:105780000E949C2B482F437F209729F0219711F4EA
:10579000486001C04C60C80160E00E94D62ADF91D9
:1057A000CF911F910F910895FF920F931F93CF9365
:1057B000DF93EC018B0166E00E949C2B1A8257ED6F
:1057C000F52EF8220230110511F480E206C00130F6
:1057D000110529F481E08A8388E0F82A01C01A8241
:1057E000CE0166E04F2D0E94D62ACE0166E00E94CF
:1057F0009C2B8F1511F481E002C01A8280E0DF91AA
:10580000CF911F910F91FF9008951F93CF93DF9336
:10581000EC01162F66E00E949C2B143010F04CE037
:1058200003C0412F440F4F5F887F482BCE0166E0B5
:105830000E94D62ADF91CF911F9108950F931F9355
:10584000CF93DF93EC01162F042F6730F0F461E063
:105850000E949C2B282F002351F081E090E002C091
:10586000880F991F1A95E2F7422F482B0AC081E052
:1058700090E002C0880F991F1A95E2F7482F4095D3
:105880004223CE0161E00E94D62ADF91CF911F9181
:105890000F9108950F931F938C010E94D929C8017D
:1058A0006DE10E949C2B482F4660C8016DE10E946B
:1058B000D62AC8016CE10E949C2B482F4360C80186
:1058C0006CE10E94D62A1F910F9108950F931F93A8
:1058D0008C010E94D929C8016DE10E949C2B482FA0
:1058E0004460C8016DE10E94D62AC8016CE10E94A3
:1058F0009C2B482F4F63C8016CE10E94D62A81E09F
:10590000F80185831F910F910895BF92CF92DF9286
:10591000EF92FF920F931F93DF93CF93CDB7DEB734
:1059200028970FB6F894DEBF0FBECDBF6C01B62E20
:10593000E982FA820B831C832D833E834F83588731
:10594000662389F4F601E6828A8187838B818087CA
:105950008C8181878D8182878E8183878F818487E7
:105960008885858707C0F6E0F61708F43DC081E01A
:10597000681761F4EB2DF0E0E75BFD4FE491C601A1
:105980006E2FAE014F5F5F4F25E00BC0E62FF0E0BA
:10599000E75BFD4FE491C6016E2FAE014F5F5F4F95
:1059A00021E00E94392B0B2D10E0F801E15BFD4F47
:1059B000E491C6016E2FF60144810E94D62AC601E9
:1059C00062E00E949C2B0D5B1D4FF801649121E069
:1059D00030E002C0220F331F6A95E2F7482F422BB6
:1059E000C60162E00E94D62A28960FB6F894DEBF60
:1059F0000FBECDBFCF91DF911F910F91FF90EF9020
:105A0000DF90CF90BF9008950F931F93CF93DF93B4
:105A1000EC018B0167E10E949C2B80FF02C080E0BB
:105A20000DC00115110549F0CE010E94082A90E031
:105A3000959587958770F801808381E0DF91CF91FC
:105A40001F910F910895CF93DF93EC0160E00E94C6
:105A50009C2B81FD10C0CE0160E00E949C2B482F42
:105A60004260CE0160E00E94D62A65E070E080E0EE
:105A700090E00E94942EDF91CF9108950F931F9391
:105A80008C01FC01808160E00E94932FC8010E947C
:105A90000C2AC8010E94102AC80160E00E949C2BB9
:105AA000482F4E7FC80160E00E94D62A1F910F91B7
:105AB0000895CF93DF93EC010E94232DCE0160E087
:105AC0000E949C2B482F4160CE0160E00E94D62AA4
:105AD000CE0167E040E70E94D62A8E819F81892B04
