:100000000C94DA010C94972D0C94C42D0C94741E4E
:100010000C94A11E0C94CE1E0C94A5280C940202E4
:100020000C9402020C9404290C9402020C94020217
:100030000C9402020C9402020C9402020C94020230
:100040000C94F12D0C9402020C9423310C94713118
:100050000C9402020C9402020C9402020C94020210
:100060000C94681C0C940202005EBCE2613FDD83CC
:10007000C29C7E20A3FD1F419DC3217FFCA2401E88
:100080005F01E3BD3E6082DC237D9FC1421CFEA078
:10009000E1BF5D0380DE3C62BEE0025CDF81633D68
:1000A0007C22C09E1D43A1FF4618FAA427799BC558
:1000B00084DA3866E5BB5907DB856739BAE4065848
:1000C0001947A5FB7826C49A653BD987045AB8E638
:1000D000A7F91B45C6987A24F8A6441A99C7257B28
:1000E0003A6486D85B05E7B98CD2306EEDB3510F18
:1000F0004E10F2AC2F7193CD114FADF3702ECC9208
:10010000D38D6F31B2EC0E50AFF1134DCE90722CF7
:100110006D33D18F0C52B0EE326C8ED0530DEFB1E7
:10012000F0AE4C1291CF2D73CA947628ABF51749D7
:100130000856B4EA6937D58B5709EBB536688AD4C7
:1001400095CB2977F4AA4816E9B7550B88D6346AB7
:100150002B7597C94A14F6A8742AC896154BA9F7A7
:10016000B6E80A54D7896B35303B303B25643B30C9
:100170003B25643B0072643D636C6561720A0069F3
:10018000643D25640A0066756C6C0A006E65772014
:10019000706172656E743D25642C20643D25640A8F
:1001A0000076657273696F6E206D69736D6174633B
:1001B000680A00726561643A2025642D25642D2546
:1001C0006420733D25642C633D25642C743D2564B7
:1001D0002C70743D25642C6C3D25643A25730A000F
:1001E00073656E643A2025642D25642D25642D25C4
:1001F0006420733D25642C633D25642C743D256487
:100200002C70743D25642C6C3D25642C73743D2545
:10021000733A25730A00726571206E6F64652069F8
:10022000640A00636865636B2077697265730A000E
:10023000257320737461727465642C2069642025B1
:10024000640A000001020304050A0B0C0D0E0F11D5
:10025000121314151600000000240027002A0000C5
:10026000000000250028002B0000000000230026CD
:10027000002900040404040404040402020202022B
:10028000020303030303030102040810204080015A
:1002900002040810200102040810200000000700DA
:1002A000020100000304060000000000000000003E
:1002B000407A10F35A00A0724E18090010A5D4E835
:1002C0000000E87648170000E40B54020000CA9AC8
:1002D0003B000000E1F5050000809698000000401A
:1002E000420F000000A0860100000010270000005F
:1002F00000E803000000006400000000000A0000A5
:100300000000000100000000002C76D888DC674F58
:100310000823DFC1DFAE59E1B1B796E5E3E453C688
:100320003AE651997696E8E6C28426EB898C9B6280
:10033000ED407C6FFCEFBC9C9F40F2BAA56FA5F42A
:1003400090055A2AF75C936B6CF9676DC11BFCE052
:10035000E40D47FEF520E6B500D0ED902E030094A5
:100360003577050080841E080000204E0A0000003A
:10037000C80C333333330F986E12831141EF8D2144
:1003800014893BE65516CFFEE6DB18D1844B381BAB
:10039000F77C1D901DA4BBE424203284725E228170
:1003A00000C9F124ECA1E53D270085087D11041B5F
:1003B000FB1EDD3211241FBECFEFD8E0DEBFCDBF64
:1003C00013E0A0E0B1E0EAE7F0E702C005900D928B
:1003D000AC31B107D9F716E0ACE1B3E001C01D9232
:1003E000A836B107E1F713E0C4EBD3E004C02297CD
:1003F000FE010E940038CA3AD107C9F70E94333380
:100400000C943B380C940000EF92FF920F931F93D3
:10041000F22FF02E47FD02C0E4E001C0E4E1242FFA
:10042000332727FD309537FF03C0309521953F4F87
:100430004F2D512F0F2FEE2E0E947A058F2D912FC9
:100440001F910F91FF90EF900895FC018827992745
:10045000E89421912032E9F3293010F02E30C8F3CE
:100460002B3241F02D3239F4689404C00E94FF020F
:10047000820F911D219120532A30C0F31EF49095D4
:1004800081959F4F08951F93FC0199278827BC01F0
:10049000E89411911032E9F3193010F01E30C8F3CE
:1004A0001B3251F01D3249F4689406C00E94EA02E2
:1004B000610F711D811D911D119110531A30B0F300
:1004C0003EF490958095709561957F4F8F4F9F4F2B
:1004D0001F910895FB01DC014150504048F001900C
:1004E0000D920020C9F701C01D9241505040E0F725
:1004F0000895A0E0B0E0EFE7F2E00C940E387C0144
:10050000EB018A01690109C0CE012196F601099526
:10051000F70181937F010150104001151105A1F7EA
:10052000CDB7DEB7E8E00C942A38FB019F01E894D0
:100530004230C4F04532B4F44A3029F497FB1EF43B
:10054000909581959F4F642F77270E94EA37805DB1
:100550008A330CF0895D8193CB010097A1F716F4E3
:100560005DE251931082C9010C94CA07FA01CF933E
:10057000FF93EF93223044F1253234F5C22FE894F3
:10058000CA3049F497FB3EF490958095709561953B
:100590007F4F8F4F9F4F2C2F332744275527FF9393
:1005A000EF930E94C837EF91FF91605D6A330CF0C2
:1005B000695D6193B901CA0160507040804090400C
:1005C00051F716F4CDE2C19310828F919F91CF9194
:1005D0000C94CA07592F482F372F262F660F771FE5
:1005E000881F991F660F771F881F991F620F731F3F
:1005F000841F951F660F771F881F991F08957AE043
:10060000979F902D879F802D910D11240895FA01B9
:10061000CF93FF93EF932230CCF02532BCF4C22F5E
:100620002C2F332744275527FF93EF930E94C83779
:10063000EF91FF91605D6A330CF0695D6193B901E0
:10064000CA01605070408040904051F710828F91F5
:100650009F91CF910C94CA07FB019F01423074F027
:10066000453264F4642F77270E94EA37805D8A332D
:100670000CF0895D8193CB010097A1F71082C9012D
:100680000C94CA07AEE0B0E0E8E4F3E00C94123852
:100690000D891E898F89988D97FF02C080E090E8B0
:1006A00001979E838D831A8309838EE08C839E013C
:1006B000255E3F4FCE010196698D7A8DA9010E947A
:1006C0009D034D815E8157FD0AC02F8138854217F9
:1006D00053070CF49A01020F131FF80110822E9693
:1006E000E4E00C942E38AEE0B0E0E9E7F3E00C94DF
:1006F00012388C0177FF02C060E070E861507040F2
:100700007E836D831A8309838EE08C83CE010196EC
:10071000BA01A9010E949D032D813E8137FD09C0C8
:10072000EF81F8852E173F070CF4F901E00FF11F58
:1007300010822E96E4E00C942E38ABE0B0E0E3EAB1
:10074000F3E00C9404383C012B015A01FC011782A0
:100750001682838181FD03C06FEF7FEFC6C19AE0EF
:10076000892E1E010894211C311CF3012381F20102
:1007700023FD859123FF81912F01882309F4B2C1C4
:10078000853239F423FD859123FF81912F01853234
:1007900029F490E0B3010E94DA07E7CF982FFF24F5
:1007A000EE249924FFE1FF15D0F09B3269F09C32D2
:1007B00028F4903259F0933291F40EC09D3249F0F2
:1007C000903369F441E024C052E0F52A84E0F82A2D
:1007D00028C098E0F92A25C0E0E1FE2A22C0F7FCF3
:1007E00029C0892F80538A3070F4F6FE05C0989C8A
:1007F000902C1124980E15C0E89CE02C1124E80ED2
:10080000F0E2FF2A0EC09E3229F4F6FC6BC140E4F0
:10081000F42A07C09C3619F450E8F52A02C098362D
:1008200049F4F20123FD959123FF91912F01992322
:1008300009F0B8CF892F8554833018F08052833067
:1008400038F444E050E0A40EB51E5FE359830FC0B6
:10085000933631F0933779F0933509F056C020C0C4
:10086000F5018081898342E050E0A40EB51E61014C
:1008700001E010E012C0F501C080D180F6FC03C099
:100880006FEF7FEF02C0692D70E042E050E0A40EF0
:10089000B51EC6010E94BF078C015FE7F52214C098
:1008A000F501C080D180F6FC03C06FEF7FEF02C07E
:1008B000692D70E042E050E0A40EB51EC6010E9412
:1008C000B4078C0150E8F52AF3FE07C01AC080E295
:1008D00090E0B3010E94DA07EA948E2D90E00817A9
:1008E0001907A8F30EC0F601F7FC8591F7FE819178
:1008F0006F0190E0B3010E94DA07E110EA94015021
:1009000010400115110579F7EAC0943611F09936B7
:1009100069F5F7FE08C0F5012081318142815381DC
:1009200084E090E00AC0F501808191819C01442718
:1009300037FD4095542F82E090E0A80EB91E9FE647
:10094000F92257FF09C050954095309521953F4FAA
:100950004F4F5F4FE0E8FE2ACA01B901A1012AE02A
:1009600030E00E940608D82ED21840C0953729F4EE
:100970001F2D1F7E2AE030E01DC01F2D197F9F36DE
:1009800061F0903720F4983509F0ACC00FC0903773
:1009900039F0983709F0A6C004C028E030E00AC05A
:1009A000106114FD146020E130E004C014FD1660F5
:1009B00020E132E017FF08C0F5016081718182817A
:1009C000938144E050E008C0F50180819181BC0131
:1009D00080E090E042E050E0A40EB51EA1010E942C
:1009E0000608D82ED2188FE7F82EF122F6FE0BC09B
:1009F0005EEFF522D91438F4F4FE07C0F2FC05C00E
:100A00008FEEF82202C01D2D01C0192DF4FE0DC07D
:100A1000FE01ED0DF11D8081803319F499EEF9226C
:100A200008C01F5FF2FE05C003C08F2D867809F055
:100A30001F5F0F2DF3FC14C0F0FE0FC01E1510F049
:100A40009D2C0BC09D2C9E0C911A1E2D06C080E281
:100A500090E0B3010E94DA071F5F1E15C0F304C0C7
:100A60001E1510F4E11A01C0EE2404FF0FC080E34C
:100A700090E0B3010E94DA0702FF1DC001FD03C030
:100A800088E790E00EC088E590E00BC0802F867864
:100A900091F001FF02C08BE201C080E2F7FC8DE221
:100AA00090E0B3010E94DA0706C080E390E0B30152
:100AB0000E94DA079A94D914C0F3DA94F101ED0D8B
:100AC000F11D808190E0B3010E94DA07DD20A9F7D3
:100AD00006C080E290E0B3010E94DA07EA94EE20BB
:100AE000C1F743CEF30166817781CB012B96E2E11A
:100AF0000C942038A9E0B0E0E0E8F5E00C94083868
:100B00006A01122FA02EBE2C2BE3201718F42CE321
:100B1000922E02C0902E9394AE014F5F5F4F27E05C
:100B2000092D0E94DC06BC018981E82EFF24C70143
:100B300089709070019711F4ADE209C0B1FE02C056
:100B4000ABE205C0B0FC02C0A0E001C0A0E2E3FE41
:100B50003BC0AA2311F423E001C024E0211710F0C8
:100B600020E002C0121B212FEB2CB4FE02C0322F5A
:100B70000AC0F601322F80E202C081933150332344
:100B8000E1F7C20ED11CAA2319F0F601A1936F015F
:100B9000F6013196E2FE05C09EE4D6019C9381E405
:100BA00004C09EE6D6019C9381E611968C939183B6
:100BB0003296DF01832F90E202C09D9381508823FB
:100BC000E1F7E30FF11D40C0E2FE42C0AA2311F499
:100BD00023E001C024E0211710F020E002C0121B26
:100BE000212FEB2CB4FE02C0922F0AC0F601922FE7
:100BF00080E202C0819391509923E1F7C20ED11C8B
:100C0000AA2319F0F601A1936F01F6013196E2FED5
:100C100008C089E4D6018C938EE411968C9386E407
:100C200007C089E6D6018C938EE611968C9386E6F2
:100C300081833296DF01892F20E202C02D938150FB
:100C40008823E1F7E90FF11D10822EEF3FEFAFC0CF
:100C5000161617061CF041E050E003C0AB014F5FD1
:100C60005F4FAA2019F480E090E003C08A2D90E045
:100C7000019620E030E0AA2311F021E030E0240FBB
:100C8000351F280F391F812F90E02817390714F0DE
:100C900020E002C0121B212F4B2D50E0CA018071B1
:100CA0009070B4FC0DC0B3FC0BC0F601322F40E2D3
:100CB00002C0419331503323E1F7C20ED11C01C071
:100CC000322FAA2319F0F601A1936F01892B11F09D
:100CD000132F0AC0F601132F80E302C08193115035
:100CE0001123E1F7C30ED11C092D060FBA8090E144
:100CF000892E912C8E209F20E4FE04C0F1E3BF16C4
:100D000009F40150101614F001E003C0093008F096
:100D100008E09B0177FF02C020E030E0CB010196A4
:100D2000821B930BFE013196E80FF91F8EE2F82E1D
:100D30003B01601A71088A2D90E044275527481B13
:100D4000590B8FEF2F3F380719F4D601FD926D0133
:100D5000621773072CF06216730614F4808101C0C9
:100D600080E32150304031962417350724F0D60116
:100D70008D936D01E6CF2617370749F4B5E3BB1510
:100D800028F0BB1621F48114910409F481E3F601E3
:100D90008193D601812F90E202C09C9381501196DD
:100DA0008823D9F7E10FF11D108220E030E0C9015E
:100DB0002996EEE00C942438283008F027E03327F9
:100DC000DA01990F311D87FD91600096610571056B
:100DD00039F432602E5F3D9330E32A95E1F70895B0
:100DE0009F3F30F080387105610509F03C5F3C5F42
:100DF0003D93913008F08068911DDF93CF931F934E
:100E00000F93FF92EF92192F987F9695E92F969561
:100E10009695E90FFF27E75FFC4F99273327EE24CC
:100E2000FF24A701E70105900894079428F4360FE2
:100E3000E71EF81E491F511D660F771F881F991F57
:100E40000694A1F70590079428F4E70EF81E491FB1
:100E5000561FC11D770F881F991F661F0694A1F7A3
:100E60000590079428F4F80E491F561FC71FD11D7F
:100E7000880F991F661F771F0694A1F705900794A6
:100E800020F4490F561FC71FD81F990F661F771FE1
:100E9000881F0694A9F784911095177041F0D69594
:100EA000C79557954795F794E7941A95C1F7EFEAD8
:100EB000F2E06894159015913591659195910590A2
:100EC0007FE27395E118F10A430B560BC90BD00969
:100ED000C0F7E10CF11E431F561FC91FD01D7EF441
:100EE000703311F48A95E6CFE894015030F0080F82
:100EF0000AF40027021708F4202F2395022F7A33D3
:100F000028F079E37D932A95E9F710C07D932A951F
:100F100089F6069497956795379517951794E11874
:100F2000F10A430B560BC90BD00998F023957E911B
:100F300073957A3308F070E37C932013B8F77E91B1
:100F400070617D9330F0839571E37D9370E32A9512
:100F5000E1F71124EF90FF900F911F91CF91DF9156
:100F6000992787FD90950895FC0105906150704088
:100F70000110D8F7809590958E0F9F1F0895FC0162
:100F80006150704001900110D8F7809590958E0FB8
:100F90009F1F0895DC01FC01672F71917723E1F712
:100FA000329704C07C916D9370836291AE17BF0736
:100FB000C8F308950F931F93CF93DF938C01EB0138
:100FC0008B8181FF1BC082FF0DC02E813F818C81F0
:100FD0009D812817390764F4E881F9810193F98329
:100FE000E88306C0E885F985802F0995892B31F4BF
:100FF0008E819F8101969F838E8302C00FEF1FEF2A
:10100000C801DF91CF911F910F910895FA01AA278E
:10101000283051F1203181F1E8946F936E7F6E5F3B
:101020007F4F8F4F9F4FAF4FB1E03ED0B4E03CD0E9
:10103000670F781F891F9A1FA11D680F791F8A1FCC
:10104000911DA11D6A0F711D811D911DA11D20D033
:1010500009F468943F912AE0269F11243019305DED
:101060003193DEF6CF010895462F4770405D4193DE
:10107000B3E00FD0C9F7F6CF462F4F70405D4A332B
:1010800018F0495D31FD4052419302D0A9F7EACFF3
:10109000B4E0A6959795879577956795BA95C9F722
:1010A00000976105710508959B01AC010A2E069415
:1010B0005795479537952795BA95C9F7620F731FCE
:1010C000841F951FA01D089520915B0330915C0340
:1010D00027313105C1F021153105A9F02130310545
:1010E00091F02230310579F02330310561F0243060
:1010F000310549F02530310531F080E026303105E9
:1011000019F481E0089581E008950F931F9383E21D
:1011100093E061E20E948B1601E313E0C80164E0F2
:101120000E946C138FE393E0B8010E94A21387E83A
:1011300093E069E04AE00E9495288EEF93E061E039
:1011400046E00E944A1F8FE194E062E046E00E9480
:101150004A1F80E494E063E046E00E944A1F81E673
:1011600094E064E046E00E944A1F82E894E065E073
:1011700046E00E944A1F1F910F91089580E10E944E
:10118000E52EAA2797FDA095BA2FBC01CD010E949C
:101190006F3620E030E040E85AE30E94233720E039
:1011A00030E040EA50E40E94233708952F923F92A6
:1011B0004F925F926F927F928F929F92AF92BF9267
:1011C000CF92DF92EF92FF920F931F930E94BE087F
:1011D0003B014C012090AC023090AD024090AE0239
:1011E0005090AF02E090A802F090A9020091AA02EC
:1011F0001091AB02C801B7012091A4023091A50261
:101200004091A6025091A7020E946B355B016C01D0
:1012100020E030E040E050E00E941F37181624F034
:10122000D7FAD094D7F8D094C801B701A40193019C
:101230000E946B357B018C01C201B10120E030E0DE
:1012400048EC51E40E946B352CEB34E743E15CE35E
:101250000E94233720E030E040E850E40E946C35E3
:101260009B01AC0160E070E080EE90E40E946B3581
:101270009B01AC01C601B5010E94D4359B01AC01B4
:10128000C801B7010E94D43520E030E040EE50E4C0
:101290000E946C351F910F91FF90EF90DF90CF90DF
:1012A000BF90AF909F908F907F906F905F904F9086
:1012B0003F902F9008950E94291181E0809356035A
:1012C00008950F931F9382E496E060E071E00E941E
:1012D00058350E94B21A80931E030E94AA1A809366
:1012E0001D030E94A21A0CE113E0F80180830E9402
:1012F0009A1A809320030E94921A809321030E94DD
:101300008D1A825B80932203C8010E9435101F91C1
:101310000F9108950F931F9303E213E0C80161E05A
:1013200040E00E94E816C80168E171E00E949C1646
:10133000C80161E040E00E94E816E0918103F0916D
:101340008203EE0FFF1FE055FD4F60817181C801E0
:101350000E949C161F910F910895CF92DF92EF92F9
:10136000FF920F931F9360916B0370916C038091B8
:101370006D0390916E032CE330E040E050E00E945A
:10138000C83769017A0103E213E0C80162E04AE06C
:101390000E94E816C80168E171E00E949C16C8012D
:1013A00062E04AE00E94E816C80163E271E00E9430
:1013B0009C16C801B6010E94BE161F910F91FF90A6
:1013C000EF90DF90CF900895CF92DF92EF92FF924F
:1013D0000F931F9360915F0370916003809161038D
:1013E0009091620320E030E040E752E40E94D4355F
:1013F0000E943C366B017C0103E213E0C80161E00E
:101400004AE00E94E816C80168E171E00E949C165B
:10141000C80161E04AE00E94E816C80168E271E094
:101420000E949C16C801B6010E94BE161F910F9122
:10143000FF90EF90DF90CF900895CF92DF92EF92E0
:10144000FF920F931F93DF93CF9300D000D00F92A2
:10145000CDB7DEB77B018C0193E2C92E93E0D92E84
:10146000C60163E04AE00E94E816C60168E171E047
:101470000E949C16C60163E04AE00E94E816C6017D
:101480006DE271E00E949C16C801B70144E021E0C2
:101490007E010894E11CF11C87010E940402C60130
:1014A000B7010E949C160F900F900F900F900F9015
:1014B000CF91DF911F910F91FF90EF90DF90CF9030
:1014C0000895CF92DF92EF92FF920F931F93DF93D5
:1014D000CF9300D000D00F92CDB7DEB77B018C0147
:1014E00023E2C22E23E0D22EC60163E040E00E9438
:1014F000E816C60168E171E00E949C16C60163E02F
:1015000040E00E94E816C60162E371E00E949C166A
:10151000C801B70144E021E07E010894E11CF11C00
:1015200087010E940402C601B7010E949C160F9019
:101530000F900F900F900F90CF91DF911F910F910F
:10154000FF90EF90DF90CF900895CF92DF92EF92CF
:10155000FF920F931F93DF93CF9300D000D00F9291
:10156000CDB7DEB77B018C0133E2C32E33E0D32E3F
:10157000C60162E040E00E94E816C60168E171E041
:101580000E949C16C60162E040E00E94E816C60177
:1015900068E371E00E949C16C801B70144E021E0B5
:1015A0007E010894E11CF11C87010E940402C6011F
:1015B000B7010E949C160F900F900F900F900F9004
:1015C000CF91DF911F910F91FF90EF90DF90CF901F
:1015D00008950A9728F483E293E060E30E9460177D
:1015E00008950F931F93DF93CF93CDB7DEB727975F
:1015F0000FB6F894DEBF0FBECDBFCE0101960E949C
:10160000931003E213E0C80160E040E00E94E81696
:10161000C8016EE371E00E949C16C80160E040E0E2
:101620000E94E8168B8190E00E94E90A6B81C80154
:1016300070E00E94BE168B8180935B0310925C0366
:10164000C8016AE30E943E178A8190E00E94E90A7D
:101650006A81C80170E00E94BE168A8180935D0392
:1016600010925E03C8016AE30E943E17898190E0F0
:101670000E94E90A6981C80170E00E94BE16C80193
:1016800060E04AE00E94E8168D8190E00E94E90A3D
:101690006D81C80170E00E94BE16C8016FE20E9411
:1016A0003E178E8190E00E94E90A6E81C80170E0C9
:1016B0000E94BE168E818093590310925A03C8016E
:1016C0006FE20E943E176F8170E06E54784FC80140
:1016D0000E94BE1627960FB6F894DEBF0FBECDBF90
:1016E000CF91DF911F910F91089580915403813024
:1016F00051F485E060E00E94462F1092540310924E
:1017000064031092630308958091630390916403CE
:101710000196909364038093630320919802309123
:101720009902821793075CF080915403882339F45F
:1017300085E061E00E94462F81E080935403089584
:1017400086E060E00E94462F089580917B0390918F
:101750007C038431910599F483E061E00E94462F77
:1017600060E971E080E090E00E94472E83E060E055
:101770000E94462F10927C0310927B0308950196DD
:1017800090937C0380937B03089580915303813071
:10179000A1F40E94392E60939C0270939D02809365
:1017A0009E0290939F0287E060E00E94462F88E0AF
:1017B00060E00E94462F10925303089580915303D6
:1017C0008823A9F40E94392E6093770370937803DD
:1017D0008093790390937A0387E061E00E94462F1B
:1017E00088E061E00E94462F81E0809353030895D2
:1017F000809153038130B1F586E061E00E94462F6D
:1018000060916F03709170038091710390917203E6
:101810000E946D369B01AC0160915F037091600383
:1018200080916103909162030E946C3560935F0325
:1018300070936003809361039093620382E496E067
:1018400063E571E00E94583540915F035091600359
:10185000609161037091620382E496E022E030E0DF
:101860000E94453580915303882351F486E060E05F
:101870000E94462F82E496E060E671E00E945835AF
:10188000089581E10E949A2F019729F090E08091BC
:101890005503813009F491E0892F08956F927F926A
:1018A0008F929F92AF92BF92CF92DF92EF92FF9270
:1018B0000F931F937B018C0139014A018EEF93E056
:1018C000B801A70121E00E94B51FBC0107E813E0A1
:1018D000C80140E00E94CE268FE194E0B401A3014C
:1018E00021E00E94B51FBC01C80140E00E94CE2645
:1018F00040917D0350917E0360917F03709180033E
:1019000080E494E021E00E94B51FBC01C80140E0E2
:101910000E94CE26C6016CE370E00E94B53781E6D6
:1019200094E00E94C41FBC01C80140E00E94CE2682
:10193000C5016CE370E00E94B53782E894E00E9434
:10194000C41FBC01C80140E00E94CE260E94392E6F
:10195000609383037093840380938503909386033D
:101960001F910F91FF90EF90DF90CF90BF90AF90BD
:101970009F908F907F906F9008954F925F926F929B
:101980007F928F929F92AF92BF92CF92DF92EF920F
:10199000FF920F931F93DF93CF9300D000D0CDB76A
:1019A000DEB70E94392E60937303709374038093A3
:1019B0007503909376038091570390915803019695
:1019C00090935803809357034E9751F487E893E020
:1019D0006BE579E00E94432610925803109257035A
:1019E00080911E0390E020915B0330915C032817E7
:1019F000390741F082E496E06EE871E00E945835C4
:101A00000E94610983E293E060E00E941C178FE36B
:101A100093E00E94E3148FE393E06CE872E00E948D
:101A200093152B013C018FE393E064E872E00E9480
:101A3000931569837A838B839C830E94392E20912E
:101A40008303309184034091850350918603621B88
:101A5000730B840B950B61527E448040904038F1AB
:101A600082E496E066EA71E00E945835E0907D03DA
:101A7000F0907E0300917F0310918003C0906B0370
:101A8000D0906C0360915F0370916003809161035B
:101A9000909162030E943C364B015C0169817A811E
:101AA0008B819C81A301920154010E944E0C0E94E3
:101AB000F10A69817A818B819C810E94A50AC30108
:101AC000B2010E94610A80918103909182030E9479
:101AD0008A0960915F037091600380916103909126
:101AE00062030E943C36DC01CB010E94E409809134
:101AF0006B0390916C030E94AD0960917D0370911E
:101B00007E0380917F03909180030E941D0A0E94B2
:101B1000410C882311F180919A0290919B020197C8
:101B2000C9F080915303813059F482E496E06DEB63
:101B300071E00E9458350E94C50B0E94750B04C0CD
:101B4000882341F40E94DE0B81E090E090939B0299
:101B500080939A020E94A50B04C010929B021092DF
:101B60009A028091590390915A030497059708F0BF
:101B7000B5C181E090E0909366038093650380E4B3
:101B800098E390935203809351030E946408882342
:101B900031F00E94DE0B109282031092810380913B
:101BA0005B0390915C03079729F580915D03909109
:101BB0005E03892BF9F480916B0390916C03A091E3
:101BC0006D03B0916E038093670390936803A093B5
:101BD0006903B0936A0310926B0310926C03109226
:101BE0006D0310926E0368E873E180E090E00E945C
:101BF000472E86C1CC24DD240E94D6087B018C01AF
:101C00000E94BE0860917D0370917E0380917F03E6
:101C100090918003A80197010E946C3560937D0329
:101C200070937E0380937F03909380030894C11C7C
:101C3000D11CE4EFCE16E1E0DE06F1F620E030E064
:101C40004AEF53E40E94D43560937D0370937E0382
:101C500080937F03909380032091940230919502AA
:101C600040919602509197020E941F37181674F403
:101C700020915D0330915E038091820290918302F6
:101C8000281739071CF40E94F80B02C00E94A00B11
:101C9000A0906B03B0906C03C0906D03D0906E0366
:101CA0008091510390915203AA2797FDA095BA2FD6
:101CB000A816B906CA06DB0688F080919A029091B0
:101CC0009B02892B59F481E090E0909382038093EA
:101CD00081030E94C50B0E94750B12C10E9464080B
:101CE000882309F402C180919A0290919B02892B6A
:101CF00009F0FBC00E94DE0B109282031092810358
:101D0000B5C080919A0290919B02892B19F5E090C1
:101D1000A002F090A1020091A2021091A302809172
:101D2000770390917803A0917903B0917A03E80E3C
:101D3000F91E0A1F1B1F0E94392EE616F706080718
:101D4000190708F093C00E94750B0E94C50B82E032
:101D500090E088C06091800270918102882777FDB1
:101D60008095982F0E946F369B01AC01C301B20190
:101D70000E946C357B018C0169817A818B819C8109
:101D8000A80197010E941F371816CCF5C301B201B4
:101D900020E030E048EE51E40E94D03588237CF505
:101DA0008091650390916603892B49F580919A0291
:101DB00090919B02892B19F5E090A002F090A1026E
:101DC0000091A2021091A30280919C0290919D0229
:101DD000A0919E02B0919F02E80EF91E0A1F1B1FE0
:101DE0000E94392EE616F7060807190708F03EC0CC
:101DF0000E94DE0B0E94840B83E090E033C0698177
:101E00007A818B819C81A80197010E94D035181698
:101E1000ACF080919A0290919B02892B79F4A114E5
:101E2000B104C104D10419F486E090E01BC00E9403
:101E3000C50B0E94750B85E090E014C080919A025A
:101E400090919B02019719F488E090E00BC080917B
:101E5000650390916603019719F489E090E002C050
:101E600084E090E0909382038093810380915303F8
:101E7000813009F045C00E94392E209173033091C2
:101E800074034091750350917603621B730B840BAE
:101E9000950B28EE33E040E050E00E94C837C901BE
:101EA000DA0180936F0390937003A0937103B09352
:101EB000720320916B0330916C0340916D0350913C
:101EC0006E03280F391F4A1F5B1F20936B0330934B
:101ED0006C0340936D0350936E0312C0109266031F
:101EE0001092650380E890E74CCEC301B20120E078
:101EF00030E048EE51E40E941F3787FF02CF2ACF1F
:101F00000F900F900F900F90CF91DF911F910F9135
:101F1000FF90EF90DF90CF90BF90AF909F908F9009
:101F20007F906F905F904F9008958F929F92AF92A5
:101F3000BF92CF92EF92FF920F931F93A7E88A2E42
:101F4000A3E09A2EC40160E070E04FEF20E00FEFB5
:101F5000F3E0EF2EF12CECE4CE2E52E0A52EB12CC6
:101F60000E946027C40164E672E044E752E020E08A
:101F70000E945B2642E5E42E41E1F42EC7010E9457
:101F8000761AC40161E046E020E00E94AB26C4015D
:101F900062E046E020E00E94AB26C40163E046E038
:101FA00020E00E94AB26C40164E046E020E00E94ED
:101FB000AB26C40165E046E020E00E94AB26C401E8
:101FC00066E043E020E00E94AB2603E213E0C80194
:101FD00060E00E941C17C8010E94631786E061E060
:101FE0000E94072F85E061E00E94072F87E061E0F3
:101FF0000E94072F88E061E00E94072F83E061E0E4
:102000000E94072F81E162E00E94072F0FE313E097
:10201000C8010E941A16C8016CE872E04CE00E94E8
:10202000C715C80164E872E04CE00E94C715C701FB
:102030000E94761A1F910F91FF90EF90CF90BF9062
:10204000AF909F908F900895482F6AE00E94A93723
:10205000282F30E084E0220F331F8A95E1F7842F88
:102060000E94A937892F820F08950F931F938C0127
:1020700085E095E068E670E00E94CA1A85E095E088
:1020800060E00E944C1BF80180810E942410682FA0
:1020900085E095E00E944C1BF80181810E9424108C
:1020A000682F85E095E00E944C1BF80182810E9418
:1020B0002410682F85E095E00E944C1BF801838175
:1020C0000E942410682F85E095E00E944C1BF801C7
:1020D00084810E942410682F85E095E00E944C1BAB
:1020E000F80185810E942410682F85E095E00E9408
:1020F0004C1BF80186818E510E942410682F85E0C8
:1021000095E00E944C1B85E095E00E948F1B882380
:1021100021F01092A30480E003C081E08093A30427
:102120001F910F9108950F931F93CF93DF93EC01AD
:1021300085E095E068E670E00E94CA1A85E095E0C7
:1021400060E00E944C1B85E095E00E948F1B882375
:1021500019F01092A30411C081E08093A30485E0DC
:1021600095E068E670E047E050E00E94A01B85E043
:1021700095E00E94D41A079714F480E065C085E0CA
:1021800095E00E94DD1A082F8F7782958F701AE0F4
:10219000819FC0011124202F2F70280F288385E0F4
:1021A00095E00E94DD1A282F22952F70219F900123
:1021B00011248F70820F898385E095E00E94DD1ADB
:1021C000282F2F7322952F70219F900111248F703B
:1021D000820F8A8385E095E00E94DD1A282F2295E0
:1021E0002F70219F900111248F70820F8B8385E0C7
:1021F00095E00E94DD1A282F22952F70219F9001D3
:1022000011248F70820F8C8385E095E00E94DD1A87
:10221000282F22952F70219F900111248F70820FFB
:102220008D8385E095E00E94DD1A282F2F70225EB5
:1022300082958F70819FC0011124280F2E83802FDB
:102240008095881F8827881FDF91CF911F910F915C
:1022500008950F931F93DF93CF93CDB7DEB72797E2
:102260000FB6F894DEBF0FBECDBF8E010F5F1F4FBC
:10227000A8010E94CE17898180688983C8010E94C5
:10228000351089818F778983C8010E943510279680
:102290000FB6F894DEBF0FBECDBFCF91DF911F9177
:1022A0000F9108950F931F93DF93CF93CDB7DEB7B0
:1022B00027970FB6F894DEBF0FBECDBF8E010F5F1C
:1022C0001F4FC8010E949310882329F420E030E0BA
:1022D00040E050E005C0C8010E94FF189B01AC011E
:1022E000B901CA0127960FB6F894DEBF0FBECDBF65
:1022F000CF91DF911F910F91089585E095E00E94A5
:10230000A41B0895FC0113861586148687E090E0CF
:1023100012863197009711F00197FACF0895DC01EA
:1023200080E00BC0E82FF0E08D9190E0E827F927DE
:10233000E859FF4FE49161508E2F662399F7089575
:10234000DF92EF92FF920F931F93FC01E0800181D7
:102350001281F894F80181818E2981838281DE2C9B
:10236000D0948D21828383E090E00E94A02EF8011A
:1023700081818D2181838AE090E00E94A02EF80166
:102380000081789485E390E00E94A02E80E010E028
:10239000FF240E211F21012B09F081E01F910F91D5
:1023A000FF90EF90DF900895EF92FF920F931F93AD
:1023B000CF93DF937C0101E010E0C0E0D0E0C701E3
:1023C0000E94A0118111102B000F2196C830D10559
:1023D000B1F7812FDF91CF911F910F91FF90EF9077
:1023E00008951F93CF93DF93FC011081C181D281A7
:1023F000912F909560FF12C0F8948A8189238A8377
:102400008981812B89838AE090E00E94A02E8A81B5
:10241000812B8A83789487E390E011C0F8948A81B5
:1024200089238A838981812B898381E490E00E94BA
:10243000A02E8A81812B8A83789485E090E00E9487
:10244000A02EDF91CF911F910895CF92DF92EF924E
:10245000FF920F931F93CF93DF938C01E42EFF2401
:10246000F394C0E0D0E0C62EDD2460E08F2D90E034
:102470008C219D21892B09F061E0C8010E94F11196
:10248000FF0C2196C830D10581F7EE20A9F4F8940D
:10249000D8011196ED91FC91129791818C918095C4
:1024A000982391831196ED91FC91129792818C91D2
:1024B0008095982392837894DF91CF911F910F910B
:1024C000FF90EF90DF90CF9008956CEC40E00E9479
:1024D00025120895EF92FF920F931F93CF93DF93EE
:1024E0008C017B0165E540E00E942512C0E0D0E050
:1024F000F701EC0FFD1FC801608140E00E9425122A
:102500002196C830D105A1F7DF91CF911F910F918E
:10251000FF90EF900895DF92EF92FF920F931F9339
:10252000CF93DF93FC010081C181D281F89489812E
:10253000D02ED0948D21898378941DE7E02EFF243E
:10254000115059F182E090E00E94A02E888190E025
:102550008E219F21892BA1F3F8948A818D218A8372
:102560008981802B8983789484EF91E00E94A02E4A
:10257000F89489818D21898380E590E00E94A02EC6
:10258000888110E090E0E822F922EF2809F411E0B8
:10259000789484EA91E00E94A02E812FDF91CF9160
:1025A0001F910F91FF90EF90DF900895AF92BF922F
:1025B000DF92EF92FF920F931F93CF93DF93EC0183
:1025C0005B018D85882309F061C0CE010E948B12CA
:1025D000882329F41B861D861C8690E06BC0CE01E3
:1025E00060EF40E00E94251201E0DD24EE24FF248C
:1025F000F394CE010E94A011182FCE010E94A011C9
:10260000113019F48130E1F439C0181709F58B85C0
:10261000081770F460E0FE01EE0DF11D838190E07B
:102620002F2D30E082239323181619064CF003C097
:1026300060E0081729F0093008F04CC00C874AC048
:10264000FE01EE0DF11D83818F29838361E009C0B6
:10265000612FFE01EE0DF11D9F2D90958381892341
:102660008383CE010E94F1110F5FFF0C19F4E394F4
:10267000FF24F39487E08E1508F0BBCF013430F0CF
:10268000DB86DD2011F581E08D871FC01B861D864E
:102690001C8690E0DE0120E030E0F501E20FF31F40
:1026A00013968C91139780832F5F3F4F119628309C
:1026B000310599F7892FDF91CF911F910F91FF90ED
:1026C000EF90DF90BF90AF9008958B818823F1F257
:1026D00091E0E0CFD02EBDCFFF920F931F938C01DE
:1026E000F62E862F60E00E94072F8F2D90E0FC01D0
:1026F000E957FD4FE491D801EC938D589D4FFC01B3
:102700006491E62FF0E0EE0FFF1FE759FD4F859132
:10271000949112969C938E9311971B961C921B97E3
:102720001D961C921D971C961C92F80187E090E064
:1027300012863197009711F00197FACF1F910F91F0
:10274000FF900895FC0187E694E1918B808B75835F
:102750006483138210828FE190E0928381830895D5
:102760006F927F928F929F92AF92BF92CF92DF92A1
:10277000EF92FF920F931F93CF93DF93FB01EA0138
:10278000998180E0288130E0282B392BE081E232EA
:1027900031F0E83221F0E03109F084C04BC04C81C7
:1027A0004F3329F1403420F44F3109F07BC02FC062
:1027B0004F3579F04F3709F075C0B901882777FD9B
:1027C0008095982F0E946F3620E030E040E85DE36E
:1027D0002EC035952795B901882777FD8095982FCC
:1027E0000E946F3620E030E040E05EE320C0359587
:1027F000279535952795B901882777FD8095982FDE
:102800000E946F3620E030E040E85EE310C093E0C5
:10281000359527959A95E1F7B901882777FD809539
:10282000982F0E946F3620E030E040E05FE30E9486
:10283000233732C0EF8035952795B901882777FD7A
:102840008095982F0E946F3620E030E040E85EE3EC
:102850000E946B353B014C016E2D70E02E81621B96
:102860007109882777FD8095982F0E946F365B014C
:102870006C01FF2400E010E0C801B7010E946D3632
:102880009B01AC01C601B5010E94D4359B01AC018E
:10289000C401B3010E946C359B01AC01832F942FBE
:1028A000752F00C0262F382F492F572FB901CA0185
:1028B000DF91CF911F910F91FF90EF90DF90CF901C
:1028C000BF90AF909F908F907F906F9008950895E4
:1028D000EF92FF920F931F938C017B01FC01848187
:1028E00095810E948B12F80184819581B7010E9425
:1028F0006A12F8018481958164EB40E00E94251200
:10290000F801848195810E94A011F82EF80184813C
:1029100095810E948B1280E0FF2009F481E01F91D5
:102920000F91FF90EF900895EF92FF920F931F93F6
:10293000CF93DF93EC018B017A018C819D810E9402
:102940008B128C819D81B8010E946A128C819D81BD
:102950006EE440E00E9425128C819D81F701628126
:1029600040E00E9425128C819D81F701638140E047
:102970000E942512F8018081803139F08C819D817F
:10298000F701648140E00E9425128C819D810E94A4
:102990008B128C819D8168E448810E942512888178
:1029A000882331F06AE070E080E090E00E94472EDA
:1029B0008C819D810E948B12DF91CF911F910F918D
:1029C000FF90EF9008950F931F938C01FC01848179
:1029D00095810E948B12F801848195810E94651275
:1029E000F8018481958164E440810E942512F801F8
:1029F000818192818F33910551F08F35910561F07E
:102A00004F9779F46EE570E080E090E00EC06CEBDB
:102A100070E080E090E009C067E771E080E090E05E
:102A200004C06EEE72E080E090E00E94472E1F919D
:102A30000F910895CF92DF92EF92FF920F931F9321
:102A40008C016B017A01FC01848195810E948B12BB
:102A5000F80184819581B6010E946A12F80184818F
:102A600095816EEB40E00E942512F80184819581EA
:102A70000E94D411F7018083F801848195810E941E
:102A8000D411F7018183F801848195810E94D411CA
:102A9000F7018283F801848195810E94D411F701A6
:102AA0008383F801848195810E94D411F701848386
:102AB000F801848195810E94D411F7018583F80182
:102AC000848195810E94D411F7018683F801848165
:102AD00095810E94D411F7018783F8018481958143
:102AE0000E94D411F7018087F801848195810E94AA
:102AF0008B121F910F91FF90EF90DF90CF90089570
:102B00000F931F938A010E941A15C80168E00E9462
:102B10008F1120E0F8019085891709F421E0822FB8
:102B20001F910F910895CF92DF92EF92FF920F9332
:102B30001F93DF93CF93CDB7DEB729970FB6F894E5
:102B4000DEBF0FBECDBF8C017B016E010894C11C9E
:102B5000D11CA6010E948015882329F460E070E052
:102B60008EEF92EC05C0C801B701A6010E94B01318
:102B700029960FB6F894DEBF0FBECDBFCF91DF917F
:102B80001F910F91FF90EF90DF90CF900895CF921B
:102B9000DF92EF92FF921F93DF93CF93CDB7DEB713
:102BA00029970FB6F894DEBF0FBECDBF6C017B0135
:102BB000142FAE014F5F5F4F0E9480158823D9F01C
:102BC000F70180818031B9F01A3051F01A3050F09D
:102BD0001B3021F01C3031F48FE705C08FE503C0B6
:102BE0008FE301C08FE18D83C601B701AE014F5F56
:102BF0005F4F0E94941429960FB6F894DEBF0FBE63
:102C0000CDBFCF91DF911F91FF90EF90DF90CF90DC
:102C100008950F931F938B01CB0167E00E948F11E2
:102C200020E0F8019781891709F421E0822F1F9194
:102C30000F9108959F92AF92BF92CF92DF92EF9241
:102C4000FF920F931F93DF93CF93CDB7DEB76197BA
:102C50000FB6F894DEBF0FBECDBF8C01FC0184819E
:102C600095810E948211F80113827E010894E11C73
:102C7000F11CE9E0AE2EB12CAC0EBD1E7FE7C72ED5
:102C8000D12C992493942DC0C801B7010E94091634
:102C9000882339F1F8018081882341F4C801B70104
:102CA0000E946814882311F0F8019082C801B701CE
:102CB000A5010E941A158981803121F4F801D28280
:102CC000C1820BC08D85282F30E0F801818192816F
:102CD0008217930714F432832183F80183818F5F75
:102CE0008383F80184819581B7010E94D6128823DD
:102CF00059F661960FB6F894DEBF0FBECDBFCF91E7
:102D0000DF911F910F91FF90EF90DF90CF90BF90D8
:102D1000AF909F900895FF920F931F938C01F62E12
:102D20000E94831783ED92E0F80191838083F586FA
:102D30001F910F91FF900895CF93DF93EB01FC015A
:102D40006585772767FD709585E095E00E94CA1A32
:102D500085E095E062E006C02196772767FD7095D3
:102D600085E095E00E944C1B68816623A9F785E009
:102D700095E00E948F1BDF91CF910895EF92FF9213
:102D80000F931F93DF93CF93CDB7DEB72F970FB677
:102D9000F894DEBF0FBECDBF8C01CB017E0108943D
:102DA000E11CF11CB7014AE050E00E949502C80105
:102DB000B7010E949C162F960FB6F894DEBF0FBE87
:102DC000CDBFCF91DF911F910F91FF90EF900895AC
:102DD0001F93FC01613099F062301CF4662331F0DE
:102DE0000EC0623031F0633051F406C0142F105819
:102DF00008C0142F1C5605C0142F1C5202C0142FDB
:102E000010546585772767FD709585E095E00E94F1
:102E1000CA1A85E095E061E00E944C1B612F77277C
:102E200067FD709585E095E00E944C1B85E095E07C
:102E30000E948F1B1F910895EF92FF920F931F9393
:102E4000E62E05E015E0FC016585772767FD7095A6
:102E5000C8010E94CA1AC80163E00E944C1BFF24EB
:102E6000E7FCF094C8016E2D0E944C1BC8010E9423
:102E70008F1B1F910F91FF90EF900895EF92FF929B
:102E80000F931F93E62E05E015E0FC01658577277B
:102E900067FD7095C8010E94CA1AC80162E00E94CD
:102EA0004C1BFF24E7FCF094C8016E2D0E944C1BC4
:102EB000C8010E948F1B1F910F91FF90EF90089502
:102EC0000E943E1708950F931F9305E015E0FC0143
:102ED0006585772767FD7095C8010E94CA1AC801E9
:102EE00061E00E944C1BC80161E00E944C1BC801BC
:102EF0000E948F1B64E670E080E090E00E94472E05
:102F00001F910F910895FF920F931F938C01F62E3E
:102F10000E94BA1A83EE92E0F80191838083F486CE
:102F200085E095E00E94A41B1F910F91FF900895EA
:102F3000882319F48CB5806202C08CB58F7D8CBD5E
:102F400008959CB5937F982B9CBD08952CB5382F80
:102F500033702C7F322B3CBD2DB590E09595879535
:102F60009595879581702E7F822B8DBD08958AE07F
:102F700061E00E94462F8AE061E00E94072F8CB535
:102F800080618CBD8CB580648CBD8DE061E00E9459
:102F9000072F8BE061E00E94072F08958F929F9288
:102FA000AF92BF92CF92DF92EF92FF920F931F9357
:102FB000CF93DF937B018C01EA012CE330E040E00A
:102FC00050E00E94C8376883C801B7012CE330E0A5
:102FD00040E050E00E94C837122F032FF42EE52E58
:102FE000622F732F842F952F2CE330E040E050E0C8
:102FF0000E94C8376983612F702F8F2D9E2D2CE37F
:1030000030E040E050E00E94C837122F032FF42E2A
:10301000E52E622F732F842F952F28E130E040E0BA
:1030200050E00E94C8376A83612F702F8F2D9E2D2C
:1030300028E130E040E050E00E94C83779018A0181
:10304000C801B7016C5F7F4F8F4F9F4F27E030E083
:1030500040E050E00E94C8376F5F6B8320E0AA24F5
:10306000BB24650101C02F5F822E9924F401EE5428
:10307000F84FCF0183709070892B99F4CF0164E6EB
:1030800070E00E94B537892B39F4CF0160E971E017
:103090000E94B537892B29F48EE691E0A0E0B0E0DC
:1030A00004C08DE691E0A0E0B0E0A80EB91ECA1EF3
:1030B000DB1EC501A0E0B0E0E816F9060A071B0711
:1030C00090F62E83F401EE54F84F83E0882E912C75
:1030D0008E229F228114910499F4CF0164E670E05E
:1030E0000E94B537892B39F4CF0160E971E00E9465
:1030F000B537892B29F48EE691E0A0E0B0E004C05A
:103100008DE691E0A0E0B0E0A81AB90ACA0ADB0A8D
:10311000980187010A191B092C093D09CF0164E6B2
:1031200070E00E94B5377C01CF0160E971E00E9438
:10313000B537AC01EFEEF2E060E0613051F481149C
:10314000910449F4E114F10441F44115510529F0C9
:1031500002C0808103C08CE101C08DE190E0A0E05D
:10316000B0E0081719072A073B0740F0081B190BA6
:103170002A0B3B0B6F5F31966C30F9F66F5F6D83F6
:10318000802F8F5F8C83DF91CF911F910F91FF90E4
:10319000EF90DF90CF90BF90AF909F908F90089569
:1031A000EF92FF920F931F937B018C018091BB04E0
:1031B0009091BC04A091BD04B091BE04E816F9063C
:1031C0000A071B0771F0C801B70140EB54E00E94E9
:1031D000CE17E092BB04F092BC040093BD041093A0
:1031E000BE041F910F91FF90EF9008950E94D01898
:1031F0002091B60430E02E54384FC90108954F9203
:103200005F926F927F928F929F92AF92BF92CF9276
:10321000DF92EF92FF920F931F93CF93DF934C01B6
:10322000DC0116961C91612F70E080E090E020E8B0
:1032300033E341EE51E00E948A375B016C0122EBDF
:1032400037E0E12FF0E0EE54F84F1DC0C901837064
:103250009070892BB1F4C90164E670E00E94B53723
:10326000892B39F4C90160E971E00E94B537892BD7
:1032700041F480E891E5A1E0B0E0A80EB91ECA1EB5
:10328000DB1E2F5F3F4F2E173F0701F7D401159626
:103290008C91482E5524C90164E670E00E94B53730
:1032A0007C01C90160E971E00E94B5378C01C1E081
:1032B000D0E093E0692E712C6222732227C0C230C5
:1032C000D10591F46114710479F4E114F10419F455
:1032D0000115110549F480E89BE3A6E2B0E0A80ED1
:1032E000B91ECA1EDB1E11C0FE01E251FD4F6081F6
:1032F00070E080E090E020E831E541E050E00E949D
:103300008A37A60EB71EC81ED91E2196C415D5052C
:10331000B4F2D40112966C9170E080E090E020E16C
:103320003EE040E050E00E948A377B018C01F401CE
:10333000618170E080E090E02CE330E040E050E01C
:103340000E948A37E60EF71E081F191FD4018C91C0
:10335000E80EF11C011D111D14966C9170E0615076
:103360007040882777FD8095982F20E831E541E06F
:1033700050E00E948A37E60EF71E081F191FEA0C5C
:10338000FB1C0C1D1D1DB701C801DF91CF911F91C2
:103390000F91FF90EF90DF90CF90BF90AF909F90F4
:1033A0008F907F906F905F904F9008956093A604E8
:1033B0007093A7048093A8049093A9042091C40259
:1033C0003091C5024091C6025091C702260F371FA7
:1033D000481F591F2093AA043093AB044093AC04B8
:1033E0005093AD0482E090E09093AF048093AE04DC
:1033F0000E94392E6093B7047093B8048093B90487
:103400009093BA040895EF92FF920F931F931CC0FC
:103410002F5F3F4F4F4F5F4F2093A6043093A70479
:103420004093A8045093A90488EE93E0A0E0B0E094
:10343000E80EF91E0A1F1B1FE092B704F092B804B1
:103440000093B9041093BA040E94392EE090B70497
:10345000F090B8040091B9041091BA046E197F0974
:10346000800B910B2091A6043091A7044091A804F1
:103470005091A904685E73408040904048F6809166
:10348000AA049091AB04A091AC04B091AD042817AC
:1034900039074A075B07E8F0E091A404F091A5041E
:1034A0003097B9F00995611571058105910519F0FD
:1034B0000E94D6190EC020E030E08091AE049091B9
:1034C000AF04892B11F021E030E03093AF0420935A
:1034D000AE046091A6047091A7048091A804909115
:1034E000A9041F910F91FF90EF9008959093A50468
:1034F0008093A4048091A6049091A704A091A804AD
:10350000B091A9048093AA049093AB04A093AC0457
:10351000B093AD040E94031A08950E94031A0E94FA
:10352000F61808950E94031A0E94D0188091B504DD
:1035300090E008950E94031A0E94D0188091B4046C
:1035400090E008950E94031A0E94D0188091B00460
:1035500090E008950E94031A0E94D0188091B1044F
:1035600090E008950E94031A0E94D0188091B2043E
:1035700090E00895FC011382128288EE93E0A0E0AF
:10358000B0E084839583A683B7838FEF92E0918325
:103590008083089581E0809304056093E104109294
:1035A00002051092030508952091E00430E0809117
:1035B000DF04281B3109C90108954091DF0480917F
:1035C000E004481718F02FEF3FEF0AC0E42FF0E0B7
:1035D000E154FB4F8081282F30E04F5F4093DF04A0
:1035E000C9010895E091DF048091E004E81718F024
:1035F000EFEFFFEF06C0F0E0E154FB4F8081E82FD2
:10360000F0E0CF0108950895109208051092070583
:1036100088EE93E0A0E0B0E08093090590930A055E
:10362000A0930B05B0930C058FEF92E090930605E5
:10363000809305050895CF92DF92EF92FF920F934A
:103640001F93CF93DF937C016B018A018091040566
:103650008823A1F0C0E0D0E00DC0D701ED91FC912E
:10366000D601AC0FBD1F0190F081E02DC7016C9118
:1036700009952196C017D10780F304C0CB01642FB0
:103680000E944D1CC801DF91CF911F910F91FF90B7
:10369000EF90DF90CF900895DF93CF930F92CDB747
:1036A000DEB7FC016983809104058823C9F080910D
:1036B0000305803238F081E090E09383828320E03C
:1036C00030E015C080910205E82FF0E0EE51FB4F8D
:1036D000998190838F5F809302058093030505C0D5
:1036E000CE01019661E00E944D1C21E030E0C9014D
:1036F0000F90CF91DF9108950F93062F8091E104F1
:1037000062EE74E04091030521E00E94F81B1092E4
:10371000020510920305109204050F91089561E0CF
:103720000E947C1B0895413208F040E2862F6FEB27
:1037300074E00E94AF1B1092DF048093E0040895B0
:1037400021E00E94931B08951092DF041092E00480
:1037500010920205109203050E94F91D0895382F5A
:10376000413210F040E042C0809111058823E1F71A
:1037700091E090931105209313058FEF80937E05C0
:1037800010923905415040933A054F5F90931205CE
:1037900080911205330F832B8093120580911405BD
:1037A000813041F410921405809112058093BB0082
:1037B00085EC01C085EE8093BC00809111058130BD
:1037C000E1F380913905841710F44091390520E028
:1037D00030E00AC0FB01E20FF31FD901A75EBA4F28
:1037E0008C9180832F5F3F4F2417A0F3842F08957F
:1037F0000F931F93582F122F413210F081E04AC0CF
:10380000809111058823E1F782E0809311050093F0
:1038100013058FEF80937E051092390540933A058A
:10382000A9E1B5E0FB0102C081918D938E2F861B2B
:103830008417D0F31092120580911205550F852B35
:103840008093120580911405813041F41092140583
:10385000809112058093BB0085EC01C085EE8093BA
:10386000BC00112321F0809111058230E1F3809199
:103870007E058F3F11F480E00DC080917E0580327F
:1038800011F482E007C080917E05803311F084E05E
:1038900001C083E01F910F910895482F613210F00D
:1038A00081E0089580911105843011F082E008953F
:1038B00060935C05ABE3B5E0842F9C01F90102C085
:1038C00081918D938E2F841B8617D0F380E008950D
:1038D0001F920F920FB60F9211242F933F934F9385
:1038E0005F936F937F938F939F93AF93BF93EF9368
:1038F000FF938091B90090E0887F907080369105A9
:1039000009F4F2C081369105CCF58832910509F4AD
:103910007BC089329105B4F48031910509F46FC000
:10392000813191053CF4009709F447C1089709F0EB
:103930004FC165C08831910509F466C0809709F0D0
:1039400047C182C08034910509F4A4C08134910537
:1039500044F48033910509F482C0C89709F038C156
:1039600089C08035910509F489C08835910509F42D
:1039700096C08834910509F02BC1AEC088399105F5
:1039800009F413C189399105ECF48837910509F4DC
:10399000ABC0893791054CF48836910509F4A4C071
:1039A0008037910509F014C19FC08838910509F44A
:1039B000FCC08039910509F49DC08038910509F05B
:1039C00007C198C0803B910509F4C6C0813B9105B1
:1039D0004CF4803A910509F49FC0883A910509F0AA
:1039E000F7C0BAC0803C910509F4E3C0883C91055A
:1039F00009F4DFC0883B910509F0EAC0C2C080919C
:103A000012058093BB00CFC09091390580913A0593
:103A1000981768F490913905E92FF0E0E75EFA4FC6
:103A200080818093BB009F5F90933905BCC08091DB
:103A30001305882309F44BC085ED8093BC00809169
:103A4000BC0084FDFCCFC2C080E280937E0585ED82
:103A50008093BC008091BC0084FDFCCFB7C080E3A4
:103A600080937E0585ED8093BC008091BC0084FD31
:103A7000FCCFACC088E380937E059BC08091390564
:103A80009091BB00E82FF0E0E75EFA4F90838F5FE4
:103A9000809339059091390580913A0582C08091D3
:103AA00039059091BB00E82FF0E0E75EFA4F908374
:103AB0008F5F8093390580911305882341F085ED50
:103AC0008093BC008091BC0084FDFCCF7FC081E06E
:103AD0008093140584EA6EC085ED8093BC008091CC
:103AE000BC0084FDFCCF72C083E08093110510926E
:103AF0007D0559C080917D05803208F056C08091C7
:103B00007D059091BB00E82FF0E0E35AFA4F9083D7
:103B10008F5F80937D0547C080917D05803230F4B2
:103B2000E0917D05F0E0E35AFA4F108285ED809335
:103B3000BC008091BC0084FDFCCF10921105609107
:103B40007D05E0911705F09118058DE595E070E091
:103B5000099510927D052DC084E080931105109287
:103B60005B0510925C05E0911505F091160509952D
:103B700080915C05882329F481E080935C05109294
:103B80003B0590915B05E92FF0E0E55CFA4F808101
:103B90008093BB009F5F90935B0590915B05809144
:103BA0005C05981710F485EC01C085E88093BC0093
:103BB0000FC085EC8093BC0009C010927E0585ED96
:103BC0008093BC008091BC0084FDFCCF1092110555
:103BD000FF91EF91BF91AF919F918F917F916F91E5
:103BE0005F914F913F912F910F900FBE0F901F90BB
:103BF00018951092110581E0809313051092140519
:103C000082E161E00E94462F83E161E00E94462F3D
:103C1000E9EBF0E080818E7F808380818D7F8083DF
:103C200088E48093B80085E48093BC000895EF9207
:103C3000FF920F931F93CF93DF938C0150917F05D9
:103C4000D80117962C91179715964C91159790912E
:103C50007F0516963C91169780917F05809583236A
:103C60009423892B2527822390917F0517969C9377
:103C700017971896CD91DC911997E82EFF241CC058
:103C80008B81282F30E0C70182239323892B89F071
:103C900080917F0540E090E082239323892B09F0F7
:103CA00041E0409381058C8180938005E881F98112
:103CB00009950D80DE81C02D209711F78BB3F80197
:103CC0009481892351F08BB3892B8BBB0190F081B8
:103CD000E02D808180937F05B1CFDF91CF911F913F
:103CE0000F91FF90EF9008951F920F920FB60F92D1
:103CF00011242F933F934F935F936F937F938F93F1
:103D00009F93AF93BF93EF93FF93E0918205F09160
:103D10008305808180937F0582E895E00E94171ECD
:103D2000FF91EF91BF91AF919F918F917F916F9193
:103D30005F914F913F912F910F900FBE0F901F9069
:103D400018951F920F920FB60F9211242F933F9345
:103D50004F935F936F937F938F939F93AF93BF9393
:103D6000EF93FF93E0918C05F0918D058081809316
:103D70007F058CE895E00E94171EFF91EF91BF919F
:103D8000AF919F918F917F916F915F914F913F91F3
:103D90002F910F900FBE0F901F9018951F920F92AA
:103DA0000FB60F9211242F933F934F935F936F930E
:103DB0007F938F939F93AF93BF93EF93FF93E09184
:103DC0009605F0919705808180937F0586E995E0BF
:103DD0000E94171EFF91EF91BF91AF919F918F911C
:103DE0007F916F915F914F913F912F910F900FBEF7
:103DF0000F901F901895EDE6F2E0859194919093C5
:103E00008305809382058BE690E0909385058093EF
:103E1000840581E0809386051092870510928805BD
:103E200010928B0510928A05EFE6F2E0859194914D
:103E300090938D0580938C058CE690E090938F0590
:103E400080938E0582E080939005109291051092E8
:103E500092051092950510929405E1E7F2E08591A4
:103E6000949190939705809396058DE690E09093BA
:103E700099058093980584E080939A0510929B059C
:103E800010929C0510929F0510929E050895FC01CA
:103E900012820895FC011282668345830895FC0115
:103EA000848182958695877019F020E030E003C008
:103EB0009F01295F3F4FC9010895CF93DF939C0174
:103EC000FC0184818770843019F060E070E03DC0AF
:103ED00061157105D1F140E027C0ED01CC0FDD1F68
:103EE000F901EA0FFB1F8781992787FD909554E020
:103EF000959587955A95E1F78F708A3010F4805D1B
:103F000001C0895CFB01EC0FFD1F8083A20FB31F72
:103F100017968C918F708A3010F4805D01C0895C97
:103F2000C60FD71F89834F5FA42FB0E0F9018381AB
:103F3000869586958695E82FF0E0AE17BF076CF260
:103F4000EE0FFF1FE60FF71F1082CB01DF91CF911D
:103F50000895FC01838187708860838384818F71D9
:103F6000806284836783CF010895FC018381877019
:103F7000886283838481806E8483478350876187CE
:103F800072872387CF010895FC0184818F7180643B
:103F90008483838187708061838370876783CF0187
:103FA0000895CF93DF93EC01DB010D900020E9F73A
:103FB0001197A61B4A2F50E09A01F3E0220F331FFE
:103FC000FA95E1F78B818770822B8B838C818F71BF
:103FD0008C83A93110F049E150E0CE0107960E9490
:103FE0006A02CE01DF91CF910895FC018481829510
:103FF0008695877090E08130910511F4878108954E
:10400000892B11F080E00895CF0107960E942502C8
:104010000895FC01848182958695877090E08530B3
:10402000910529F4278130854185528510C0892B5F
:1040300029F020E030E040E050E009C0CF010796D1
:104040000E944302AC01CB01DA019C01AD01B90130
:10405000CA010895EF92FF920F931F93CF93DF93BE
:10406000EC017B018C81829586958770A1F4BE015D
:10407000695F7F4F4B81469546954695C70150E055
:104080000E946A028B81869586958695F701E80FD6
:10409000F11D108246C06115710509F442C08130DE
:1040A00019F48F8190E004C0823041F48F819885AB
:1040B000B7014AE050E00E94950233C0833039F4E2
:1040C0008F8198854AE050E00E942C032AC08430FA
:1040D00051F46F81788589859A85A7012AE030E0BF
:1040E0000E94B6021EC0853051F46F8178858985A3
:1040F0009A85A7012AE030E00E94070312C08730AA
:1041000051F46F81788589859A8542E02B858701F6
:104110000E94040206C0863021F4CE010E945D1F79
:104120007C01C701DF91CF911F910F91FF90EF901C
:1041300008959C01F999FECF32BD21BDF89A80B552
:104140000895EF92FF920F931F93DF93CF93CDB714
:10415000DEB7CC52D1400FB6F894DEBF0FBECDBF54
:10416000C95CDE4FE880F980C753D140CB5CDE4F9D
:10417000A881B981C553D14054968C91882389F187
:10418000EDB7FEB73A970FB6F894FEBF0FBEEDBF7E
:1041900031968E010F5F1F4FADB7BEB712961C93BD
:1041A0000E9311978BE291E09383828388E691E0EE
:1041B0009583848383E090E09783868389E090E011
:1041C000918780870E944203EDB7FEB73A960FB6FB
:1041D000F894FEBF0FBEEDBF82E496E0B8010E94E6
:1041E0005E34FE01E75CFE4FCB5CDE4FA881B981F7
:1041F000C553D14054968C919E012F5F3F4F882329
:1042000059F0C9016CE370E0A7019F010E9473039C
:104210008AE08CAF1DAE07C0C9016BE271E0A70157
:104220009F010E94730382E496E0BE016F5F7F4F9F
:104230000E945E3482E496E00E948D32C45DDE4FBF
:104240000FB6F894DEBF0FBECDBFCF91DF911F91A7
:104250000F91FF90EF9008955F926F927F928F92EF
:104260009F92AF92BF92CF92DF92EF92FF920F9305
:104270001F93CF93DF937C01562EEA01822E8B8110
:10428000982E969496949694D7011E969C91988316
:10429000887F82608B83DE2CCF2CC7010E94D62CB6
:1042A000C7010E94F12C30E040E050E060E070E097
:1042B00080E090E0052DF1E03D3F08F4F0E0E1E022
:1042C000423E08F4E0E031EEA32EAF0EE060F1E0F4
:1042D000593A08F4F0E028EAB22EBE0EE1E0B8EA5E
:1042E000BB1608F0E0E0FE2BA1E0693A08F4A0E07C
:1042F000BF2FB855E1E0B83A08F0E0E0AE2BF1E0AE
:10430000772309F4F0E0E1E0882309F4E0E08D2D63
:104310009C2D1CEF95014B2F5A2F6F2F7E2F0E9443
:10432000172B892D90E04A9714F040E202C0492DE6
:10433000495F8D2D9C2DBE01282D0E94CA2A682E12
:104340008D2D9C2D0E940C2DB980A8809A808E8086
:104350001C817D800B81662029F499E3C92E92E0AF
:10436000D92E04C08EE3C82E82E0D82EB701695A38
:104370007F4FCE010E942A20EDB7FEB77A970FB685
:10438000F894FEBF0FBEEDBF3196ADB7BEB7129623
:10439000FC92EE92119720EE31E033832283B482B7
:1043A0001582A6821782508611869286138684868D
:1043B0001586212F30E02770307037872687708A66
:1043C000118A129516951770128B138A0695069509
:1043D0000695048B158AD78AC68A918F808F0E9492
:1043E000A120EDB7FEB77A960FB6F894FEBF0FBEC8
:1043F000EDBF862DDF91CF911F910F91FF90EF9030
:10440000DF90CF90BF90AF909F908F907F906F90F4
:104410005F9008954F925F926F927F928F929F92DA
:10442000AF92BF92CF92DF92EF92FF920F931F93C2
:10443000DF93CF930F92CDB7DEB74C01582E492CA6
:104440008E010F5F1F4FB8010E94B72C882309F41B
:10445000D6C28981873008F0D2C2C4010E94C72920
:10446000482F65E1662E712C680C791CC401B301DC
:104470000E94BD2AC4016981A80121E00E94592936
:10448000D40158960C9106950695069510E0F40116
:10449000E00FF11F148EF401E688D588C788B38C2D
:1044A000F18CA28CB401695A7F4FC3010E942A206B
:1044B0002DB73EB7265130400FB6F8943EBF0FBE21
:1044C0002DBFEDB7FEB73196ADB7BEB712969C9231
:1044D0008E92119723EB31E033832283E48215829D
:1044E000D6821782C0861186B28613862F2D30E0C1
:1044F0002770307035872487A6861786F294F69445
:1045000057E0F522F08A118A138B028B958B848BEE
:104510000E94A120F401808D87702DB73EB72A5EDE
:104520003F4F0FB6F8943EBF0FBE2DBF8230B1F0A3
:1045300000D000D0ADB7BEB712969C928E92119764
:1045400081EA91E014969C938E9313970E94A12088
:1045500080E00F900F900F900F9052C2F401218DC8
:10456000022F0770128DE688F58837899289992382
:1045700079F1033069F5173059F50E94392E7370BF
:10458000807090700E94472ED4011E968C911E97C9
:1045900056968C9356975796EC9257978FEF5B965B
:1045A0008C935B9788E05A968C935A9759968C9186
:1045B0005997807E836059968C935997C301509682
:1045C0006C910E94A91FAC01C4016E2D21E0F5C1C0
:1045D000F4018685381709F0DBC123FF22C0D4011E
:1045E000D696759681E201900D928150E1F7D40143
:1045F000DA968C91DA97877F8061DA968C93DA97D6
:104600001E968C911E97D7968C93D79756968C9121
:104610005697D8968C93B4016A5C7F4FC4010E9470
:10462000D425F4018289882319F18785F81601F1D0
:104630002E2D30E081E790E0880E991ED401ED9197
:10464000FC918FE89FEF880E991EE20FF31F808187
:104650008F1571F0F082F999FECF1FBA2D5F3F4F91
:1046600032BD21BDF0BC0FB6F894FA9AF99A0FBE8C
:10467000033009F080C1183009F053C0D4015496BA
:104680008C91882309F04DC0C3010E94F51F482F6B
:10469000282F30E0F401808990E00197281739072E
:1046A0000CF0ADC14F5F408B26892787F999FECF6B
:1046B0001FBA81E090E092BD81BD20BD0FB6F89495
:1046C000FA9AF99A0FBED40150963C91F999FECF0F
:1046D0001FBA82E090E092BD81BD30BD0FB6F89464
:1046E000FA9AF99A0FBEEDB7FEB738970FB6F8945D
:1046F000FEBF0FBEEDBF3196ADB7BEB712969C920E
:104700008E9211978CE891E09383828324831582A3
:10471000368317820E94A12080E0EDB7FEB738965D
:1047200096C0EE2009F027C11D3061F428E088E131
:1047300090E00FB6F894A895809360000FBE209388
:104740006000FFCF143009F088C0D4011E968C9110
:104750008F3F09F054C1C3010E94F51FF401868701
:104760008F3FA9F400D000D0ADB7BEB712969C928F
:104770008E92119786E891E014969C938E931397EE
:104780000E94A1200F900F900F900F90FFCF282F25
:1047900030E040E050E060E070E080E090E0E22E49
:1047A00001E03D3F08F400E011E0423E08F410E073
:1047B0000F511060E1E0593A08F4E0E01855F1E0DB
:1047C000183A08F0F0E0EF2BF1E0693A08F4F0E075
:1047D000BE2FB855E1E0B83A08F0E0E0FE2BA1E0CA
:1047E000772309F4A0E0E1E0882309F4E0E0852DD7
:1047F000942D61E04CEFF42E2B2F3F2F4A2F5E2F8C
:104800000E94382CF4012685F999FECF1FBA12BCFC
:1048100011BC20BD0FB6F894FA9AF99A0FBE00D0D9
:1048200000D000D0EDB7FEB73196ADB7BEB7129647
:104830009C928E9211978FE791E0938382832483D9
:1048400015820E94A12080E0EDB7FEB736960FB624
:10485000F894FEBF0FBEEDBFD3C01630D9F4C3012C
:104860000E944F1FFC0120E080818D3409F421E07B
:10487000D40151968C915197821709F4C0C051967A
:104880002C93F999FECF1FBA83E091E092BD81BDD0
:1048900020BDB0C01A3009F05AC0F40182898823C3
:1048A00009F4ADC0C3010E944F1FFC018081833415
:1048B00009F0A5C000D000D0ADB7BEB712969C924B
:1048C0008E92119785E791E014969C938E9313979F
:1048D0000E94A12020E030E00F900F900F900F90E9
:1048E000D401AF58BF4F9FEFED91FC911197E20FAC
:1048F000F31F80818F3F81F09083F999FECF1FBA1B
:104900002D5F3F4F32BD21BD2350304090BD0FB6CB
:10491000F894FA9AF99A0FBE2F5F3F4F2230310573
:1049200019F7F4018685868B178A8FEF838F8AE0CB
:10493000828F818D807E8360818FC30161E472E00C
:104940000E94D11FBC01C4010E94D42558C011305F
:1049500009F055C023E730E0820E931ED4010D917B
:104960001C910115110509F44AC0C3010E940920D8
:10497000F801099544C0E5E7F0E08E0E9F1ED401D2
:10498000ED91FC91309711F0C301099581E038C099
:104990009923A9F18981813091F584010F581F4F26
:1049A000D801ED91FC91E30FF11D6081862F8150BC
:1049B0008E3F30F4C401A30120E00E942C211FC0CF
:1049C000C401F4016785A30120E00E942C216E2D13
:1049D00070E0D801ED91FC91E60FF71F80818F15F3
:1049E00071F0F082F999FECF1FBA6D5F7F4F72BDF3
:1049F00061BDF0BC0FB6F894FA9AF99A0FBE80E048
:104A00000F90CF91DF911F910F91FF90EF90DF906A
:104A1000CF90BF90AF909F908F907F906F905F905E
:104A20004F900895EF92FF920F931F93CF93DF93D0
:104A3000EC010E94392E7B018C0103C0CE010E9443
:104A40000A220E94392E6E197F09800B910B605D3E
:104A500077408040904090F3DF91CF911F910F916C
:104A6000FF90EF900895EF92FF920F931F938C01A8
:104A700000591F4FF8011082005710409FEFF801B6
:104A8000908B8685868B978B938F87E0828F818D25
:104A9000807E8360818F75E1E72EF12CE00EF11EA0
:104AA000C70161E472E00E94D11FC8016FEFA70146
:104AB00021E00E942C21C8010E9412251F910F9114
:104AC000FF90EF900895EF92FF920F931F93CF9373
:104AD000DF93EC0100D000D0EDB7FEB79283818365
:104AE00086E192E0948383830E94A1200F900F902F
:104AF0000F900F908E85282F30E040E050E060E06E
:104B000070E080E090E0E22E01E03D3F08F400E03C
:104B100011E0423E08F410E00F511060E1E0593A14
:104B200008F4E0E01855F1E0183A08F0F0E0EF2B57
:104B3000F1E0693A08F4F0E0BE2FB855E1E0B83A88
:104B400008F0E0E0FE2BA1E0772309F4A0E0E1E02B
:104B5000882309F4E0E0CE0161E02CEFF22E2B2F48
:104B60003F2F4A2F5E2F0E94382C8E858E8B1F8AF6
:104B70008FEF8B8F83E08A8F898D807E8360898F12
:104B8000CE01459661E472E00E94D11FBC01CE01C6
:104B90000E94D425CE010E941225DF91CF911F9152
:104BA0000F91FF90EF9008951F93CF93DF93EC0147
:104BB000DB0120E014968C9114978770833009F400
:104BC00021E08E858F3F59F4222329F015968C9190
:104BD0001597833021F0CE010E9463252CC08A896D
:104BE000882331F112969C911297CF58DF4FE881BC
:104BF000F981C157D040E90FF11D6081862F8150A6
:104C00008E3F30F4992321F0CE01AD0120E00DC09C
:104C1000222371F015968C911597843049F49F3FAB
:104C200039F4CE016FEFAD0121E00E942C2127C0A5
:104C30008C89882311F080E022C0CE016F85AD0100
:104C400020E00E942C21182F882329F011E0C05960
:104C5000DF4F188213C08B89882351F0C059DF4F72
:104C60008881C057D040863018F0CE010E9433258D
:104C7000FE01E059FF4F80818F5F8083812FDF919C
:104C8000CF911F910895FC01ED58FF4F7183608310
:104C9000E357F0408685868B178A8FEF838F81E0FC
:104CA000828F818D807E8360818FCF017596BF0159
:104CB0000E94D4250895FF920F931F93CF93DF9303
:104CC000EC018A01F22E61157105E9F08E858E8B5B
:104CD0001F8A8FEF8B8F8BE08A8F30E021703070CE
:104CE00053E0220F331F5A95E1F7898D807F83604F
:104CF000822B8F7E898FCE0145960E94D11FBC01E9
:104D0000CE010E94D42501151105F9F08E858E8BF8
:104D10001F8A8FEF8B8F8CE08A8F2F2D30E02170D0
:104D2000307043E0220F331F4A95E1F7898D807F71
:104D30008360822B8F7E898FCE014596B8010E94B9
:104D4000D11FBC01CE010E94D425DF91CF911F91CC
:104D50000F91FF9008950F931F938C01FC0186859E
:104D6000868B178A638F428F30E02170307063E04A
:104D7000220F331F6A95E1F7818D807F822B8F7E12
:104D8000818FC801459662E472E00E94D11FBC0188
:104D9000C8010E94D4251F910F910895DC01FB01E9
:104DA0001E968C911E97818350E04170507083E075
:104DB000440F551F8A95E1F78481807F8160842BA1
:104DC0008483CD010E94D425811181E008950F9341
:104DD0001F938C0180E091E00E9442330F581F4FD7
:104DE000F8018083918363E070E040E051E029E9BD
:104DF00030E20E9479021F910F910895EF92FF9285
:104E00000F931F93CF93DF93EC01E62EF42E8901CD
:104E1000C059DF4F1882C057D040CE010E94452DA7
:104E2000CE010E943F29882389F400D000D0EDB73D
:104E3000FEB7D283C18383E292E0948383830E948E
:104E4000A1200F900F900F900F90FFCFCE0161E047
:104E50000E94B32ACE0162E040E00E94D12BCE0135
:104E60000E94FD2BCE016F2D0E94E42ACE016E2DF3
:104E70000E94B82BCE01B8010E94872BCE0165E0BD
:104E80004FE00E94A92ACE0162E070E00E946C2BE4
:104E9000CE010E94192CCE0162E0EE24EA942CEFA0
:104EA000F22E01EE18EA28EA30E040E050E00E94DD
:104EB000382CDF91CF911F910F91FF90EF900895C3
:104EC0008F929F92AF92BF92CF92DF92EF92FF921A
:104ED0000F931F93CF93DF93EC014B01D42E122F2E
:104EE00082E496E040E052EC61E070E00E94AC3178
:104EF0001C8A1A8A112311F081E08A8BCB58DF4F6C
:104F000099828882C557D0408A89882319F0CE01BA
:104F10000E94E726CE01B7014C2D95010E94FE2686
:104F2000CE010E9660E070E043E050E029E930E207
:104F30000E947902CE01419663E071E041E050E0C9
:104F400029E930E20E94790289898F3F11F481E0DA
:104F5000898B0F3F19F00F871B8A02C081E08B8B72
:104F60008FEFD812DE868B89882331F08F858F3FB3
:104F700019F4CE010E9433258E858F3F19F4CE019E
:104F80000E9463258A89882319F426E432E002C04E
:104F90002DE432E0ADB7BEB718970FB6F894BEBF98
:104FA0000FBEADBFEDB7FEB731961296DC93CE9330
:104FB000119780E392E093838283358324838E85E7
:104FC000868317820E94A120DC2ECD2E8DB79EB73E
:104FD00008960FB6F8949EBF0FBE8DBF8E85282F02
:104FE00030E040E050E060E070E080E090E0E22EF1
:104FF00001E03D3F08F400E011E0423E08F410E01B
:105000000F511060E1E0593A08F4E0E01855F1E082
:10501000183A08F0F0E0EF2BF1E0693A08F4F0E01C
:10502000BE2FB855E1E0B83A08F0E0E0FE2BA1E071
:10503000772309F4A0E0E1E0882309F4E0E08D2D76
:105040009C2D60E04CEFF42E2B2F3F2F4A2F5E2F2C
:105050000E94382C8E85282F30E040E050E060E040
:1050600070E080E090E0E22E01E03D3F08F400E0D7
:1050700011E0423E08F410E00F511060E1E0593AAF
:1050800008F4E0E01855F1E0183A08F0F0E0EF2BF2
:10509000F1E0693A08F4F0E0BE2FB855E1E0B83A23
:1050A00008F0E0E0FE2BA1E0772309F4A0E0E1E0C6
:1050B000882309F4E0E08D2D9C2D61E03CEFF32E78
:1050C0002B2F3F2F4A2F5E2F0E94382C8A8988234E
:1050D00011F441E101C042E1CE016FEF20E00E94F6
:1050E000AB268E858E8B1F8A8FEF8B8F86E08A8F03
:1050F000898D807E8360898FCE0145966F850E9461
:10510000A91FBC01CE010E94D425CE010E94122508
:10511000DF91CF911F910F91FF90EF90DF90CF9093
:10512000BF90AF909F908F9008950F931F938C0125
:105130000E942E29C80145960E94471FC801C696A5
:105140000E94471F1F910F9108951F920F920FB653
:105150000F9211248F9388E10FB6F894809360002A
:10516000109260000FBE8F910F900FBE0F901F9096
:1051700018958091A6059091A705A091A805B091DA
:10518000A9050196A11DB11D8093A6059093A705C1
:10519000A093A805B093A9058091A6059091A705B5
:1051A000A091A805B091A9052091A0053091A10575
:1051B0004091A2055091A30582179307A407B50754
:1051C00010F18091AA058823F1F481E08093AA056B
:1051D0008091A6059091A705A091A805B091A90579
:1051E000821B930BA40BB50B8093A6059093A70588
:1051F000A093A805B093A905E091A405F091A50599
:1052000009951092AA0508951F920F920FB60F925A
:1052100011242F933F934F935F936F937F938F93BB
:105220009F93AF93BF93EF93FF938091AB059091C2
:10523000AC058093B2000E94B928FF91EF91BF9115
:10524000AF919F918F917F916F915F914F913F911E
:105250002F910F900FBE0F901F901895FC01608347
:1052600041831282138280E2848315821682178220
:105270001086118612861386148615860895FC0101
:1052800083810895FF920F931F938C01F62E81E086
:105290000E94981780E00E94A11784E00E94A61740
:1052A000F80181816F2D0E94462F1F910F91FF9071
:1052B0000895EF92FF920F931F93CF93DF93EC012A
:1052C000162F042FF52EE22E60E00E94422917705F
:1052D000186A1EBD0DB407FEFDCF802F9F2D9C01C7
:1052E000F9012E2D213208F020E28EB508C0808110
:1052F0008EBD0DB407FEFDCF31968EB52150222311
:10530000B1F7CE0161E00E944229DF91CF911F9158
:105310000F91FF90EF900895CF93DF93EC0160E041
:105320000E94422980E58EBD0DB407FEFDCF8EB5EB
:1053300083E78EBD0DB407FEFDCF8EB5CE0161E0D3
:105340000E944229DF91CF9108951F93CF93DF935D
:10535000EC01162F60E00E9442291EBD0DB407FE2D
:10536000FDCF1EB5CE0161E00E944229812FDF9161
:10537000CF911F9108956FEF0E94A529089561EEC6
:105380000E94A529089562EE0E94A52908951F9301
:10539000CF93DF93EC0160E00E94422980E68EBD4E
:1053A0000DB407FEFDCF8EB58FEF8EBD0DB407FE99
:1053B000FDCF1EB5CE0161E00E944229113220F0DE
:1053C000CE010E94C32910E0812FDF91CF911F9160
:1053D0000895EF92FF920F931F93CF93DF93EC0109
:1053E000F62EE72E9C81142F941708F4192F8D8127
:1053F000882311F000E002C0092F011BCE0160E0FC
:105400000E94422981E68EBD0DB407FEFDCF8F2D8F
:105410009E2D9C01F901FEB49FEF07C09EBD0DB407
:1054200007FEFDCF8EB5819311501123B9F707C048
:105430008EBD0DB407FEFDCF9EB5015001C08FEFAC
:105440000023B1F7CE0161E00E9442298F2DDF9148
:10545000CF911F910F91FF90EF900895DF92EF92FF
:10546000FF920F931F93CF93DF93EC01E62ED72E7D
:10547000F22E9C81142F941708F4192F8D81882304
:1054800011F000E002C0092F011BCE0160E00E9474
:105490004229FEBC0DB407FEFDCF8E2D9D2D9C0133
:1054A000F901FEB408C080818EBD0DB407FEFDCFAA
:1054B00031968EB511501123B1F706C01EBC0DB444
:1054C00007FEFDCF8EB501500023C1F7CE0161E08C
:1054D0000E9442298F2DDF91CF911F910F91FF9054
:1054E000EF90DF900895CF93DF93EC01222311F426
:1054F00020EA01C020EBCE010E942E2A888161E0C3
:105500000E94462F888160E00E94462FDF91CF9154
:1055100008950F931F93CF93DF93EC01162F042F61
:1055200060E00E9442291F7110621EBD0DB407FE8B
:10553000FDCF1EB50EBD0DB407FEFDCF8EB5CE015D
:1055400061E00E944229812FDF91CF911F910F913D
:105550000895262F4F702295207F242B64E0422F40
:105560000E94892A0895662319F061E04FE302C082
:1055700061E040E00E94892A08950F931F938C01F7
:105580000E94E929C80167E040E70E94892A1F912B
:105590000F910895CF93DF93EC010E94732ACE01FF
:1055A0000E94BB298073D9F3CE0167E040E70E94D7
:1055B000892A84FD02C081E004C0CE010E94BF2977
:1055C00080E0DF91CF910895462F603808F04FE7D3
:1055D00065E00E94892A0895EF92FF920F931F932E
:1055E000CF93DF937C01162FEA01022F60E00E9427
:1055F00042291F7110621EBD0DB407FEFDCF1EB5FE
:1056000008C088818EBD0DB407FEFDCF21968EB5F2
:1056100001500023B1F7C70161E00E944229812FA8
:10562000DF91CF911F910F91FF90EF900895EF922E
:10563000FF920F931F93DF93CF93CDB7DEB72897D9
:105640000FB6F894DEBF0FBECDBF7C0109831A836D
:105650002B833C834D835E836F8378878E010F5F3E
:105660001F4F6AE0A80125E00E94EC2AC70160E113
:10567000A80125E00E94EC2AC70161E1F7014481FD
:105680000E94892A28960FB6F894DEBF0FBECDBFC0
:10569000CF91DF911F910F91FF90EF9008951F938D
:1056A000CF93DF93EC01162F60E00E9442291F7117
:1056B0001EBD0DB407FEFDCF8EB58FEF8EBD0DB4B0
:1056C00007FEFDCF1EB5CE0161E00E944229812F69
:1056D000DF91CF911F9108950F931F93CF93DF9385
:1056E0008C01EB0160E00E944F2B482F437F2097F5
:1056F00029F0219711F4486001C04C60C80160E0B6
:105700000E94892ADF91CF911F910F910895FF92F6
:105710000F931F93CF93DF93EC018B0166E00E9400
:105720004F2B1A8257EDF52EF8220230110511F495
:1057300080E206C00130110529F481E08A8388E007
:10574000F82A01C01A82CE0166E04F2D0E94892AF4
:10575000CE0166E00E944F2B8F1511F481E002C04C
:105760001A8280E0DF91CF911F910F91FF900895F1
:105770001F93CF93DF93EC01162F66E00E944F2B0F
:10578000143010F04CE003C0412F440F4F5F887F6E
:10579000482BCE0166E00E94892ADF91CF911F91AC
:1057A00008950F931F93CF93DF93EC01162F042FCF
:1057B0006730F0F461E00E944F2B282F002351F056
:1057C00081E090E002C0880F991F1A95E2F7422FFE
:1057D000482B0AC081E090E002C0880F991F1A95FB
:1057E000E2F7482F40954223CE0161E00E94892ACA
:1057F000DF91CF911F910F9108950F931F938C010B
:105800000E948C29C8016DE10E944F2B482F4660F1
:10581000C8016DE10E94892AC8016CE10E944F2BEA
:10582000482F4360C8016CE10E94892A1F910F91A3
:1058300008950F931F938C010E948C29C8016DE17C
:105840000E944F2B482F4460C8016DE10E94892AB5
:10585000C8016CE10E944F2B482F4F63C8016CE1D7
:105860000E94892A81E0F80185831F910F91089594
:10587000BF92CF92DF92EF92FF920F931F93DF932D
:10588000CF93CDB7DEB728970FB6F894DEBF0FBE23
:10589000CDBF6C01B62EE982FA820B831C832D8367
:1058A0003E834F835887662389F4F601E6828A8116
:1058B00087838B8180878C8181878D8182878E8190
:1058C00083878F8184878885858707C0F6E0F617F0
:1058D00008F43DC081E0681761F4EB2DF0E0E75B70
:1058E000FD4FE491C6016E2FAE014F5F5F4F25E083
:1058F0000BC0E62FF0E0E75BFD4FE491C6016E2F91
:10590000AE014F5F5F4F21E00E94EC2A0B2D10E0AB
:10591000F801E15BFD4FE491C6016E2FF601448171
:105920000E94892AC60162E00E944F2B0D5B1D4F29
:10593000F801649121E030E002C0220F331F6A9524
:10594000E2F7482F422BC60162E00E94892A28967E
:105950000FB6F894DEBF0FBECDBFCF91DF911F9180
:105960000F91FF90EF90DF90CF90BF9008950F932D
:105970001F93CF93DF93EC018B0167E10E944F2BC4
:1059800080FF02C080E00DC00115110549F0CE0175
:105990000E94BB2990E0959587958770F8018083D8
:1059A00081E0DF91CF911F910F910895CF93DF9305
:1059B000EC0160E00E944F2B81FD10C0CE0160E041
:1059C0000E944F2B482F4260CE0160E00E94892A3E
:1059D00065E070E080E090E00E94472EDF91CF917B
:1059E00008950F931F938C01FC01808160E00E9459
:1059F000462FC8010E94BF29C8010E94C329C801BF
:105A000060E00E944F2B482F4E7FC80160E00E944B
:105A1000892A1F910F910895CF93DF93EC010E9483
:105A2000D62CCE0160E00E944F2B482F4160CE0162
:105A300060E00E94892ACE0167E040E70E94892A3F
:105A40008E819F81892B9885892B9985892B9A85B1
:105A5000892B9B85892B9C85892B9D85892B41F0E2
:105A6000AE014A5F5F4FCE016AE025E00E94EC2A5A
:105A7000CE010E94C329CE010E94BF29888161E026
:105A80000E94462FDF91CF910895CF93DF93EC01D1
:105A9000888161E00E94072F898161E00E94072FC1
:105AA0000E94B717888160E00E94462FCE0161E016
:105AB0000E94422965E070E080E090E00E94472E5D
:105AC000CE0165E04FE00E94A92ACE0162E070E0BD
:105AD0000E94872B882311F081E08B83CE0160E048
